{
  "contractName": "Cert",
  "abi": [
    {
      "inputs": [
        {
          "internalType": "address",
          "name": "nftAddress",
          "type": "address"
        }
      ],
      "stateMutability": "nonpayable",
      "type": "constructor"
    },
    {
      "inputs": [
        {
          "internalType": "uint256",
          "name": "",
          "type": "uint256"
        }
      ],
      "name": "certs",
      "outputs": [
        {
          "internalType": "uint256",
          "name": "id",
          "type": "uint256"
        },
        {
          "internalType": "string",
          "name": "issuer",
          "type": "string"
        },
        {
          "internalType": "string",
          "name": "issuernceDate",
          "type": "string"
        },
        {
          "components": [
            {
              "internalType": "string",
              "name": "id",
              "type": "string"
            },
            {
              "internalType": "string",
              "name": "name",
              "type": "string"
            },
            {
              "internalType": "string",
              "name": "email",
              "type": "string"
            },
            {
              "internalType": "address",
              "name": "publicKey",
              "type": "address"
            }
          ],
          "internalType": "struct Cert.cretencials",
          "name": "credentialSubject",
          "type": "tuple"
        },
        {
          "components": [
            {
              "internalType": "string",
              "name": "contentType",
              "type": "string"
            },
            {
              "internalType": "string",
              "name": "content",
              "type": "string"
            }
          ],
          "internalType": "struct Cert.display",
          "name": "displayInfo",
          "type": "tuple"
        }
      ],
      "stateMutability": "view",
      "type": "function",
      "constant": true
    },
    {
      "inputs": [],
      "name": "nftContract",
      "outputs": [
        {
          "internalType": "contract NftIPFS",
          "name": "",
          "type": "address"
        }
      ],
      "stateMutability": "view",
      "type": "function",
      "constant": true
    },
    {
      "inputs": [],
      "name": "addCert",
      "outputs": [
        {
          "components": [
            {
              "internalType": "string[]",
              "name": "context",
              "type": "string[]"
            },
            {
              "internalType": "uint256",
              "name": "id",
              "type": "uint256"
            },
            {
              "internalType": "string[]",
              "name": "certType",
              "type": "string[]"
            },
            {
              "internalType": "string",
              "name": "issuer",
              "type": "string"
            },
            {
              "internalType": "string",
              "name": "issuernceDate",
              "type": "string"
            },
            {
              "components": [
                {
                  "internalType": "string",
                  "name": "id",
                  "type": "string"
                },
                {
                  "internalType": "string",
                  "name": "name",
                  "type": "string"
                },
                {
                  "internalType": "string",
                  "name": "email",
                  "type": "string"
                },
                {
                  "internalType": "address",
                  "name": "publicKey",
                  "type": "address"
                }
              ],
              "internalType": "struct Cert.cretencials",
              "name": "credentialSubject",
              "type": "tuple"
            },
            {
              "components": [
                {
                  "internalType": "string",
                  "name": "contentType",
                  "type": "string"
                },
                {
                  "internalType": "string",
                  "name": "content",
                  "type": "string"
                }
              ],
              "internalType": "struct Cert.display",
              "name": "displayInfo",
              "type": "tuple"
            }
          ],
          "internalType": "struct Cert.cert",
          "name": "",
          "type": "tuple"
        }
      ],
      "stateMutability": "payable",
      "type": "function",
      "payable": true
    },
    {
      "inputs": [
        {
          "internalType": "uint256",
          "name": "id",
          "type": "uint256"
        }
      ],
      "name": "getCert",
      "outputs": [
        {
          "components": [
            {
              "internalType": "string[]",
              "name": "context",
              "type": "string[]"
            },
            {
              "internalType": "uint256",
              "name": "id",
              "type": "uint256"
            },
            {
              "internalType": "string[]",
              "name": "certType",
              "type": "string[]"
            },
            {
              "internalType": "string",
              "name": "issuer",
              "type": "string"
            },
            {
              "internalType": "string",
              "name": "issuernceDate",
              "type": "string"
            },
            {
              "components": [
                {
                  "internalType": "string",
                  "name": "id",
                  "type": "string"
                },
                {
                  "internalType": "string",
                  "name": "name",
                  "type": "string"
                },
                {
                  "internalType": "string",
                  "name": "email",
                  "type": "string"
                },
                {
                  "internalType": "address",
                  "name": "publicKey",
                  "type": "address"
                }
              ],
              "internalType": "struct Cert.cretencials",
              "name": "credentialSubject",
              "type": "tuple"
            },
            {
              "components": [
                {
                  "internalType": "string",
                  "name": "contentType",
                  "type": "string"
                },
                {
                  "internalType": "string",
                  "name": "content",
                  "type": "string"
                }
              ],
              "internalType": "struct Cert.display",
              "name": "displayInfo",
              "type": "tuple"
            }
          ],
          "internalType": "struct Cert.cert",
          "name": "",
          "type": "tuple"
        }
      ],
      "stateMutability": "view",
      "type": "function",
      "constant": true
    }
  ],
  "bytecode": "0x608060405234801562000010575f80fd5b5060405162002189380380620021898339818101604052810190620000369190620000e9565b5f6001819055508060025f6101000a81548173ffffffffffffffffffffffffffffffffffffffff021916908373ffffffffffffffffffffffffffffffffffffffff1602179055505062000119565b5f80fd5b5f73ffffffffffffffffffffffffffffffffffffffff82169050919050565b5f620000b38262000088565b9050919050565b620000c581620000a7565b8114620000d0575f80fd5b50565b5f81519050620000e381620000ba565b92915050565b5f6020828403121562000101576200010062000084565b5b5f6200011084828501620000d3565b91505092915050565b61206280620001275f395ff3fe60806040526004361061003e575f3560e01c8063646750d614610042578063735e83a614610082578063b449e716146100a0578063d56d229d146100dc575b5f80fd5b34801561004d575f80fd5b50610068600480360381019061006391906116e5565b610106565b6040516100799594939291906118df565b60405180910390f35b61008a61057b565b6040516100979190611b81565b60405180910390f35b3480156100ab575f80fd5b506100c660048036038101906100c191906116e5565b610f60565b6040516100d39190611b81565b60405180910390f35b3480156100e7575f80fd5b506100f06115ea565b6040516100fd9190611bfc565b60405180910390f35b5f602052805f5260405f205f9150905080600101549080600301805461012b90611c42565b80601f016020809104026020016040519081016040528092919081815260200182805461015790611c42565b80156101a25780601f10610179576101008083540402835291602001916101a2565b820191905f5260205f20905b81548152906001019060200180831161018557829003601f168201915b5050505050908060040180546101b790611c42565b80601f01602080910402602001604051908101604052809291908181526020018280546101e390611c42565b801561022e5780601f106102055761010080835404028352916020019161022e565b820191905f5260205f20905b81548152906001019060200180831161021157829003601f168201915b505050505090806005016040518060800160405290815f8201805461025290611c42565b80601f016020809104026020016040519081016040528092919081815260200182805461027e90611c42565b80156102c95780601f106102a0576101008083540402835291602001916102c9565b820191905f5260205f20905b8154815290600101906020018083116102ac57829003601f168201915b505050505081526020016001820180546102e290611c42565b80601f016020809104026020016040519081016040528092919081815260200182805461030e90611c42565b80156103595780601f1061033057610100808354040283529160200191610359565b820191905f5260205f20905b81548152906001019060200180831161033c57829003601f168201915b5050505050815260200160028201805461037290611c42565b80601f016020809104026020016040519081016040528092919081815260200182805461039e90611c42565b80156103e95780601f106103c0576101008083540402835291602001916103e9565b820191905f5260205f20905b8154815290600101906020018083116103cc57829003601f168201915b50505050508152602001600382015f9054906101000a900473ffffffffffffffffffffffffffffffffffffffff1673ffffffffffffffffffffffffffffffffffffffff1673ffffffffffffffffffffffffffffffffffffffff168152505090806009016040518060400160405290815f8201805461046690611c42565b80601f016020809104026020016040519081016040528092919081815260200182805461049290611c42565b80156104dd5780601f106104b4576101008083540402835291602001916104dd565b820191905f5260205f20905b8154815290600101906020018083116104c057829003601f168201915b505050505081526020016001820180546104f690611c42565b80601f016020809104026020016040519081016040528092919081815260200182805461052290611c42565b801561056d5780601f106105445761010080835404028352916020019161056d565b820191905f5260205f20905b81548152906001019060200180831161055057829003601f168201915b505050505081525050905085565b61058361160f565b5f805f60015481526020019081526020015f2090506001548160010181905550805f018060018154018082558091505060019003905f5260205f20015f60405180606001604052806026815260200161200760269139909190915090816105ea9190611e33565b50806002018060018154018082558091505060019003905f5260205f20015f6040518060400160405280600581526020017f7465737465000000000000000000000000000000000000000000000000000000815250909190915090816106509190611e33565b506040518060400160405280600c81526020017f49737375657220546573746500000000000000000000000000000000000000008152508160030190816106979190611e33565b506040518060400160405280600a81526020017f323032332d31302d3031000000000000000000000000000000000000000000008152508160040190816106de9190611e33565b506040518060400160405280600881526020017f7375626a65637431000000000000000000000000000000000000000000000000815250816005015f0190816107279190611e33565b506040518060400160405280600c81526020017f5375626a656374204e616d6500000000000000000000000000000000000000008152508160050160010190816107719190611e33565b506040518060400160405280600981526020017f74657374407465737400000000000000000000000000000000000000000000008152508160050160020190816107bb9190611e33565b5033816005016003015f6101000a81548173ffffffffffffffffffffffffffffffffffffffff021916908373ffffffffffffffffffffffffffffffffffffffff1602179055506040518060400160405280601081526020017f6170706c69636174696f6e2f6a736f6e00000000000000000000000000000000815250816009015f0190816108499190611e33565b506040518060400160405280600c81526020017f7b6d73673a2074657374657d00000000000000000000000000000000000000008152508160090160010190816108939190611e33565b5060025f9054906101000a900473ffffffffffffffffffffffffffffffffffffffff1673ffffffffffffffffffffffffffffffffffffffff1663766bcc31336040518263ffffffff1660e01b81526004016108ee9190611f11565b5f604051808303815f87803b158015610905575f80fd5b505af1158015610917573d5f803e3d5ffd5b5050505060015f81548092919061092d90611f57565b9190505550806040518060e00160405290815f8201805480602002602001604051908101604052809291908181526020015f905b82821015610a09578382905f5260205f2001805461097e90611c42565b80601f01602080910402602001604051908101604052809291908181526020018280546109aa90611c42565b80156109f55780601f106109cc576101008083540402835291602001916109f5565b820191905f5260205f20905b8154815290600101906020018083116109d857829003601f168201915b505050505081526020019060010190610961565b5050505081526020016001820154815260200160028201805480602002602001604051908101604052809291908181526020015f905b82821015610ae7578382905f5260205f20018054610a5c90611c42565b80601f0160208091040260200160405190810160405280929190818152602001828054610a8890611c42565b8015610ad35780601f10610aaa57610100808354040283529160200191610ad3565b820191905f5260205f20905b815481529060010190602001808311610ab657829003601f168201915b505050505081526020019060010190610a3f565b505050508152602001600382018054610aff90611c42565b80601f0160208091040260200160405190810160405280929190818152602001828054610b2b90611c42565b8015610b765780601f10610b4d57610100808354040283529160200191610b76565b820191905f5260205f20905b815481529060010190602001808311610b5957829003601f168201915b50505050508152602001600482018054610b8f90611c42565b80601f0160208091040260200160405190810160405280929190818152602001828054610bbb90611c42565b8015610c065780601f10610bdd57610100808354040283529160200191610c06565b820191905f5260205f20905b815481529060010190602001808311610be957829003601f168201915b50505050508152602001600582016040518060800160405290815f82018054610c2e90611c42565b80601f0160208091040260200160405190810160405280929190818152602001828054610c5a90611c42565b8015610ca55780601f10610c7c57610100808354040283529160200191610ca5565b820191905f5260205f20905b815481529060010190602001808311610c8857829003601f168201915b50505050508152602001600182018054610cbe90611c42565b80601f0160208091040260200160405190810160405280929190818152602001828054610cea90611c42565b8015610d355780601f10610d0c57610100808354040283529160200191610d35565b820191905f5260205f20905b815481529060010190602001808311610d1857829003601f168201915b50505050508152602001600282018054610d4e90611c42565b80601f0160208091040260200160405190810160405280929190818152602001828054610d7a90611c42565b8015610dc55780601f10610d9c57610100808354040283529160200191610dc5565b820191905f5260205f20905b815481529060010190602001808311610da857829003601f168201915b50505050508152602001600382015f9054906101000a900473ffffffffffffffffffffffffffffffffffffffff1673ffffffffffffffffffffffffffffffffffffffff1673ffffffffffffffffffffffffffffffffffffffff16815250508152602001600982016040518060400160405290815f82018054610e4690611c42565b80601f0160208091040260200160405190810160405280929190818152602001828054610e7290611c42565b8015610ebd5780601f10610e9457610100808354040283529160200191610ebd565b820191905f5260205f20905b815481529060010190602001808311610ea057829003601f168201915b50505050508152602001600182018054610ed690611c42565b80601f0160208091040260200160405190810160405280929190818152602001828054610f0290611c42565b8015610f4d5780601f10610f2457610100808354040283529160200191610f4d565b820191905f5260205f20905b815481529060010190602001808311610f3057829003601f168201915b5050505050815250508152505091505090565b610f6861160f565b6001548210610fac576040517f08c379a0000000000000000000000000000000000000000000000000000000008152600401610fa390611fe8565b60405180910390fd5b5f808381526020019081526020015f206040518060e00160405290815f8201805480602002602001604051908101604052809291908181526020015f905b82821015611092578382905f5260205f2001805461100790611c42565b80601f016020809104026020016040519081016040528092919081815260200182805461103390611c42565b801561107e5780601f106110555761010080835404028352916020019161107e565b820191905f5260205f20905b81548152906001019060200180831161106157829003601f168201915b505050505081526020019060010190610fea565b5050505081526020016001820154815260200160028201805480602002602001604051908101604052809291908181526020015f905b82821015611170578382905f5260205f200180546110e590611c42565b80601f016020809104026020016040519081016040528092919081815260200182805461111190611c42565b801561115c5780601f106111335761010080835404028352916020019161115c565b820191905f5260205f20905b81548152906001019060200180831161113f57829003601f168201915b5050505050815260200190600101906110c8565b50505050815260200160038201805461118890611c42565b80601f01602080910402602001604051908101604052809291908181526020018280546111b490611c42565b80156111ff5780601f106111d6576101008083540402835291602001916111ff565b820191905f5260205f20905b8154815290600101906020018083116111e257829003601f168201915b5050505050815260200160048201805461121890611c42565b80601f016020809104026020016040519081016040528092919081815260200182805461124490611c42565b801561128f5780601f106112665761010080835404028352916020019161128f565b820191905f5260205f20905b81548152906001019060200180831161127257829003601f168201915b50505050508152602001600582016040518060800160405290815f820180546112b790611c42565b80601f01602080910402602001604051908101604052809291908181526020018280546112e390611c42565b801561132e5780601f106113055761010080835404028352916020019161132e565b820191905f5260205f20905b81548152906001019060200180831161131157829003601f168201915b5050505050815260200160018201805461134790611c42565b80601f016020809104026020016040519081016040528092919081815260200182805461137390611c42565b80156113be5780601f10611395576101008083540402835291602001916113be565b820191905f5260205f20905b8154815290600101906020018083116113a157829003601f168201915b505050505081526020016002820180546113d790611c42565b80601f016020809104026020016040519081016040528092919081815260200182805461140390611c42565b801561144e5780601f106114255761010080835404028352916020019161144e565b820191905f5260205f20905b81548152906001019060200180831161143157829003601f168201915b50505050508152602001600382015f9054906101000a900473ffffffffffffffffffffffffffffffffffffffff1673ffffffffffffffffffffffffffffffffffffffff1673ffffffffffffffffffffffffffffffffffffffff16815250508152602001600982016040518060400160405290815f820180546114cf90611c42565b80601f01602080910402602001604051908101604052809291908181526020018280546114fb90611c42565b80156115465780601f1061151d57610100808354040283529160200191611546565b820191905f5260205f20905b81548152906001019060200180831161152957829003601f168201915b5050505050815260200160018201805461155f90611c42565b80601f016020809104026020016040519081016040528092919081815260200182805461158b90611c42565b80156115d65780601f106115ad576101008083540402835291602001916115d6565b820191905f5260205f20905b8154815290600101906020018083116115b957829003601f168201915b505050505081525050815250509050919050565b60025f9054906101000a900473ffffffffffffffffffffffffffffffffffffffff1681565b6040518060e00160405280606081526020015f8152602001606081526020016060815260200160608152602001611644611657565b8152602001611651611694565b81525090565b60405180608001604052806060815260200160608152602001606081526020015f73ffffffffffffffffffffffffffffffffffffffff1681525090565b604051806040016040528060608152602001606081525090565b5f80fd5b5f819050919050565b6116c4816116b2565b81146116ce575f80fd5b50565b5f813590506116df816116bb565b92915050565b5f602082840312156116fa576116f96116ae565b5b5f611707848285016116d1565b91505092915050565b611719816116b2565b82525050565b5f81519050919050565b5f82825260208201905092915050565b5f5b8381101561175657808201518184015260208101905061173b565b5f8484015250505050565b5f601f19601f8301169050919050565b5f61177b8261171f565b6117858185611729565b9350611795818560208601611739565b61179e81611761565b840191505092915050565b5f82825260208201905092915050565b5f6117c38261171f565b6117cd81856117a9565b93506117dd818560208601611739565b6117e681611761565b840191505092915050565b5f73ffffffffffffffffffffffffffffffffffffffff82169050919050565b5f61181a826117f1565b9050919050565b61182a81611810565b82525050565b5f608083015f8301518482035f86015261184a82826117b9565b9150506020830151848203602086015261186482826117b9565b9150506040830151848203604086015261187e82826117b9565b91505060608301516118936060860182611821565b508091505092915050565b5f604083015f8301518482035f8601526118b882826117b9565b915050602083015184820360208601526118d282826117b9565b9150508091505092915050565b5f60a0820190506118f25f830188611710565b81810360208301526119048187611771565b905081810360408301526119188186611771565b9050818103606083015261192c8185611830565b90508181036080830152611940818461189e565b90509695505050505050565b5f81519050919050565b5f82825260208201905092915050565b5f819050602082019050919050565b5f61198083836117b9565b905092915050565b5f602082019050919050565b5f61199e8261194c565b6119a88185611956565b9350836020820285016119ba85611966565b805f5b858110156119f557848403895281516119d68582611975565b94506119e183611988565b925060208a019950506001810190506119bd565b50829750879550505050505092915050565b611a10816116b2565b82525050565b5f608083015f8301518482035f860152611a3082826117b9565b91505060208301518482036020860152611a4a82826117b9565b91505060408301518482036040860152611a6482826117b9565b9150506060830151611a796060860182611821565b508091505092915050565b5f604083015f8301518482035f860152611a9e82826117b9565b91505060208301518482036020860152611ab882826117b9565b9150508091505092915050565b5f60e083015f8301518482035f860152611adf8282611994565b9150506020830151611af46020860182611a07565b5060408301518482036040860152611b0c8282611994565b91505060608301518482036060860152611b2682826117b9565b91505060808301518482036080860152611b4082826117b9565b91505060a083015184820360a0860152611b5a8282611a16565b91505060c083015184820360c0860152611b748282611a84565b9150508091505092915050565b5f6020820190508181035f830152611b998184611ac5565b905092915050565b5f819050919050565b5f611bc4611bbf611bba846117f1565b611ba1565b6117f1565b9050919050565b5f611bd582611baa565b9050919050565b5f611be682611bcb565b9050919050565b611bf681611bdc565b82525050565b5f602082019050611c0f5f830184611bed565b92915050565b7f4e487b71000000000000000000000000000000000000000000000000000000005f52602260045260245ffd5b5f6002820490506001821680611c5957607f821691505b602082108103611c6c57611c6b611c15565b5b50919050565b7f4e487b71000000000000000000000000000000000000000000000000000000005f52604160045260245ffd5b5f819050815f5260205f209050919050565b5f6020601f8301049050919050565b5f82821b905092915050565b5f60088302611cfb7fffffffffffffffffffffffffffffffffffffffffffffffffffffffffffffffff82611cc0565b611d058683611cc0565b95508019841693508086168417925050509392505050565b5f611d37611d32611d2d846116b2565b611ba1565b6116b2565b9050919050565b5f819050919050565b611d5083611d1d565b611d64611d5c82611d3e565b848454611ccc565b825550505050565b5f90565b611d78611d6c565b611d83818484611d47565b505050565b5b81811015611da657611d9b5f82611d70565b600181019050611d89565b5050565b601f821115611deb57611dbc81611c9f565b611dc584611cb1565b81016020851015611dd4578190505b611de8611de085611cb1565b830182611d88565b50505b505050565b5f82821c905092915050565b5f611e0b5f1984600802611df0565b1980831691505092915050565b5f611e238383611dfc565b9150826002028217905092915050565b611e3c8261171f565b67ffffffffffffffff811115611e5557611e54611c72565b5b611e5f8254611c42565b611e6a828285611daa565b5f60209050601f831160018114611e9b575f8415611e89578287015190505b611e938582611e18565b865550611efa565b601f198416611ea986611c9f565b5f5b82811015611ed057848901518255600182019150602085019450602081019050611eab565b86831015611eed5784890151611ee9601f891682611dfc565b8355505b6001600288020188555050505b505050505050565b611f0b81611810565b82525050565b5f602082019050611f245f830184611f02565b92915050565b7f4e487b71000000000000000000000000000000000000000000000000000000005f52601160045260245ffd5b5f611f61826116b2565b91507fffffffffffffffffffffffffffffffffffffffffffffffffffffffffffffffff8203611f9357611f92611f2a565b5b600182019050919050565b7f4964206e616f2076616c69646f000000000000000000000000000000000000005f82015250565b5f611fd2600d83611729565b9150611fdd82611f9e565b602082019050919050565b5f6020820190508181035f830152611fff81611fc6565b905091905056fe68747470733a2f2f7777772e77332e6f72672f323031382f63726564656e7469616c732f7631a2646970667358221220c24d0fb2e9f52694e97139f242a92b1ca741e4500eb4e61f88c6b9bc4b8a492e64736f6c63430008150033",
  "immutableReferences": {},
  "source": "// SPDX-License-Identifier: MIT\npragma solidity ^0.8.0;\n\nimport \"./NftIPFS.sol\";\n\ncontract Cert {\n  \n    struct cert {\n        string[] context;\n        uint256 id;\n        string[] certType;\n        string issuer;\n        string issuernceDate;\n        cretencials credentialSubject;\n        display displayInfo;\n    }\n    struct cretencials {\n        string id;\n        string name;\n        string email;\n        address publicKey;\n    }\n\n    struct display {\n        string contentType;\n        string content;\n    }\n  \n    mapping (uint256 => cert) public certs;\n\n    uint certCount;\n    NftIPFS public nftContract;\n\n    constructor (address nftAddress) {\n        certCount = 0;\n        nftContract = NftIPFS(nftAddress);\n    }\n\n    function addCert() payable external returns (cert memory) {\n        \n        cert storage newCert = certs[certCount];\n\n        newCert.id = certCount;\n        newCert.context.push(\"https://www.w3.org/2018/credentials/v1\");\n        newCert.certType.push(\"teste\");\n        newCert.issuer = \"Issuer Teste\";\n        newCert.issuernceDate = \"2023-10-01\";\n        newCert.credentialSubject.id = \"subject1\";\n        newCert.credentialSubject.name = \"Subject Name\";\n        newCert.credentialSubject.email = \"test@test\";\n        newCert.credentialSubject.publicKey = address(msg.sender);\n        newCert.displayInfo.contentType = \"application/json\";\n        newCert.displayInfo.content = \"{msg: teste}\";\n\n        nftContract.mintCertificado(msg.sender);\n\n        certCount++;\n        return newCert;\n    }\n    function getCert(uint id) view external returns(cert memory) {\n        require(id < certCount, \"Id nao valido\");\n        return certs[id];\n    }\n}\n",
  "sourcePath": "/home/alnnu/Projects/EduLedger/blockchain/contracts/Cert.sol",
  "compiler": {
    "name": "solc",
    "version": "0.8.21+commit.d9974bed.Emscripten.clang"
  },
  "schemaVersion": "3.4.16",
  "updatedAt": "2025-10-30T22:09:00.258Z",
  "networkType": "ethereum",
  "devdoc": {
    "kind": "dev",
    "methods": {},
    "version": 1
  },
  "userdoc": {
    "kind": "user",
    "methods": {},
    "version": 1
  }
}