{
  "contractName": "Cert",
  "abi": [
    {
      "inputs": [
        {
          "internalType": "address",
          "name": "nftAddress",
          "type": "address"
        }
      ],
      "stateMutability": "nonpayable",
      "type": "constructor"
    },
    {
      "anonymous": false,
      "inputs": [
        {
          "indexed": false,
          "internalType": "string",
          "name": "_metadataHash",
          "type": "string"
        }
      ],
      "name": "certAdded",
      "type": "event"
    },
    {
      "inputs": [
        {
          "internalType": "uint256",
          "name": "",
          "type": "uint256"
        }
      ],
      "name": "certs",
      "outputs": [
        {
          "internalType": "string",
          "name": "subject",
          "type": "string"
        },
        {
          "internalType": "string",
          "name": "course",
          "type": "string"
        },
        {
          "internalType": "string",
          "name": "date",
          "type": "string"
        },
        {
          "components": [
            {
              "internalType": "string",
              "name": "issuerName",
              "type": "string"
            },
            {
              "internalType": "address",
              "name": "publicKey",
              "type": "address"
            }
          ],
          "internalType": "struct Cert.cretencials",
          "name": "credential",
          "type": "tuple"
        },
        {
          "components": [
            {
              "internalType": "string",
              "name": "imageHash",
              "type": "string"
            },
            {
              "internalType": "string",
              "name": "metadataHash",
              "type": "string"
            },
            {
              "internalType": "uint256",
              "name": "NFTid",
              "type": "uint256"
            }
          ],
          "internalType": "struct Cert.display",
          "name": "displayInfo",
          "type": "tuple"
        }
      ],
      "stateMutability": "view",
      "type": "function",
      "constant": true
    },
    {
      "inputs": [],
      "name": "nftContract",
      "outputs": [
        {
          "internalType": "contract NftIPFS",
          "name": "",
          "type": "address"
        }
      ],
      "stateMutability": "view",
      "type": "function",
      "constant": true
    },
    {
      "inputs": [
        {
          "internalType": "string",
          "name": "_issuerName",
          "type": "string"
        },
        {
          "internalType": "string",
          "name": "_date",
          "type": "string"
        },
        {
          "internalType": "string",
          "name": "_subject",
          "type": "string"
        },
        {
          "internalType": "string",
          "name": "_course",
          "type": "string"
        },
        {
          "internalType": "string",
          "name": "_imageHash",
          "type": "string"
        },
        {
          "internalType": "string",
          "name": "_metadataHash",
          "type": "string"
        }
      ],
      "name": "addCert",
      "outputs": [],
      "stateMutability": "payable",
      "type": "function",
      "payable": true
    },
    {
      "inputs": [
        {
          "internalType": "string",
          "name": "_metadataHash",
          "type": "string"
        }
      ],
      "name": "getCert",
      "outputs": [
        {
          "components": [
            {
              "internalType": "string",
              "name": "subject",
              "type": "string"
            },
            {
              "internalType": "string",
              "name": "course",
              "type": "string"
            },
            {
              "internalType": "string",
              "name": "date",
              "type": "string"
            },
            {
              "components": [
                {
                  "internalType": "string",
                  "name": "issuerName",
                  "type": "string"
                },
                {
                  "internalType": "address",
                  "name": "publicKey",
                  "type": "address"
                }
              ],
              "internalType": "struct Cert.cretencials",
              "name": "credential",
              "type": "tuple"
            },
            {
              "components": [
                {
                  "internalType": "string",
                  "name": "imageHash",
                  "type": "string"
                },
                {
                  "internalType": "string",
                  "name": "metadataHash",
                  "type": "string"
                },
                {
                  "internalType": "uint256",
                  "name": "NFTid",
                  "type": "uint256"
                }
              ],
              "internalType": "struct Cert.display",
              "name": "displayInfo",
              "type": "tuple"
            }
          ],
          "internalType": "struct Cert.cert",
          "name": "",
          "type": "tuple"
        }
      ],
      "stateMutability": "view",
      "type": "function",
      "constant": true
    },
    {
      "inputs": [],
      "name": "getAllCerts",
      "outputs": [
        {
          "components": [
            {
              "internalType": "string",
              "name": "subject",
              "type": "string"
            },
            {
              "internalType": "string",
              "name": "course",
              "type": "string"
            },
            {
              "internalType": "string",
              "name": "date",
              "type": "string"
            },
            {
              "components": [
                {
                  "internalType": "string",
                  "name": "issuerName",
                  "type": "string"
                },
                {
                  "internalType": "address",
                  "name": "publicKey",
                  "type": "address"
                }
              ],
              "internalType": "struct Cert.cretencials",
              "name": "credential",
              "type": "tuple"
            },
            {
              "components": [
                {
                  "internalType": "string",
                  "name": "imageHash",
                  "type": "string"
                },
                {
                  "internalType": "string",
                  "name": "metadataHash",
                  "type": "string"
                },
                {
                  "internalType": "uint256",
                  "name": "NFTid",
                  "type": "uint256"
                }
              ],
              "internalType": "struct Cert.display",
              "name": "displayInfo",
              "type": "tuple"
            }
          ],
          "internalType": "struct Cert.cert[]",
          "name": "",
          "type": "tuple[]"
        }
      ],
      "stateMutability": "view",
      "type": "function",
      "constant": true
    },
    {
      "inputs": [
        {
          "internalType": "string",
          "name": "str1",
          "type": "string"
        },
        {
          "internalType": "string",
          "name": "str2",
          "type": "string"
        }
      ],
      "name": "compareStrings",
      "outputs": [
        {
          "internalType": "bool",
          "name": "",
          "type": "bool"
        }
      ],
      "stateMutability": "pure",
      "type": "function",
      "constant": true
    }
  ],
  "bytecode": "0x608060405234801562000010575f80fd5b50604051620020f9380380620020f98339818101604052810190620000369190620000e9565b5f6001819055508060025f6101000a81548173ffffffffffffffffffffffffffffffffffffffff021916908373ffffffffffffffffffffffffffffffffffffffff1602179055505062000119565b5f80fd5b5f73ffffffffffffffffffffffffffffffffffffffff82169050919050565b5f620000b38262000088565b9050919050565b620000c581620000a7565b8114620000d0575f80fd5b50565b5f81519050620000e381620000ba565b92915050565b5f6020828403121562000101576200010062000084565b5b5f6200011084828501620000d3565b91505092915050565b611fd280620001275f395ff3fe608060405260043610610054575f3560e01c8063646750d6146100585780637b20351b14610098578063a319946a146100d4578063bed34bba146100f0578063d3065fda1461012c578063d56d229d14610156575b5f80fd5b348015610063575f80fd5b5061007e60048036038101906100799190611232565b610180565b60405161008f95949392919061140b565b60405180910390f35b3480156100a3575f80fd5b506100be60048036038101906100b991906115ab565b610564565b6040516100cb919061170f565b60405180910390f35b6100ee60048036038101906100e9919061172f565b610a7e565b005b3480156100fb575f80fd5b5061011660048036038101906101119190611860565b610c48565b60405161012391906118f0565b60405180910390f35b348015610137575f80fd5b50610140610ca0565b60405161014d9190611a53565b60405180910390f35b348015610161575f80fd5b5061016a61113f565b6040516101779190611ace565b60405180910390f35b5f602052805f5260405f205f91509050805f01805461019e90611b14565b80601f01602080910402602001604051908101604052809291908181526020018280546101ca90611b14565b80156102155780601f106101ec57610100808354040283529160200191610215565b820191905f5260205f20905b8154815290600101906020018083116101f857829003601f168201915b50505050509080600101805461022a90611b14565b80601f016020809104026020016040519081016040528092919081815260200182805461025690611b14565b80156102a15780601f10610278576101008083540402835291602001916102a1565b820191905f5260205f20905b81548152906001019060200180831161028457829003601f168201915b5050505050908060020180546102b690611b14565b80601f01602080910402602001604051908101604052809291908181526020018280546102e290611b14565b801561032d5780601f106103045761010080835404028352916020019161032d565b820191905f5260205f20905b81548152906001019060200180831161031057829003601f168201915b505050505090806003016040518060400160405290815f8201805461035190611b14565b80601f016020809104026020016040519081016040528092919081815260200182805461037d90611b14565b80156103c85780601f1061039f576101008083540402835291602001916103c8565b820191905f5260205f20905b8154815290600101906020018083116103ab57829003601f168201915b50505050508152602001600182015f9054906101000a900473ffffffffffffffffffffffffffffffffffffffff1673ffffffffffffffffffffffffffffffffffffffff1673ffffffffffffffffffffffffffffffffffffffff168152505090806005016040518060600160405290815f8201805461044590611b14565b80601f016020809104026020016040519081016040528092919081815260200182805461047190611b14565b80156104bc5780601f10610493576101008083540402835291602001916104bc565b820191905f5260205f20905b81548152906001019060200180831161049f57829003601f168201915b505050505081526020016001820180546104d590611b14565b80601f016020809104026020016040519081016040528092919081815260200182805461050190611b14565b801561054c5780601f106105235761010080835404028352916020019161054c565b820191905f5260205f20905b81548152906001019060200180831161052f57829003601f168201915b50505050508152602001600282015481525050905085565b61056c611164565b5f5b600154811015610a3d5761061e5f808381526020019081526020015f20600501600101805461059c90611b14565b80601f01602080910402602001604051908101604052809291908181526020018280546105c890611b14565b80156106135780601f106105ea57610100808354040283529160200191610613565b820191905f5260205f20905b8154815290600101906020018083116105f657829003601f168201915b505050505084610c48565b15610a2a575f808281526020019081526020015f206040518060a00160405290815f8201805461064d90611b14565b80601f016020809104026020016040519081016040528092919081815260200182805461067990611b14565b80156106c45780601f1061069b576101008083540402835291602001916106c4565b820191905f5260205f20905b8154815290600101906020018083116106a757829003601f168201915b505050505081526020016001820180546106dd90611b14565b80601f016020809104026020016040519081016040528092919081815260200182805461070990611b14565b80156107545780601f1061072b57610100808354040283529160200191610754565b820191905f5260205f20905b81548152906001019060200180831161073757829003601f168201915b5050505050815260200160028201805461076d90611b14565b80601f016020809104026020016040519081016040528092919081815260200182805461079990611b14565b80156107e45780601f106107bb576101008083540402835291602001916107e4565b820191905f5260205f20905b8154815290600101906020018083116107c757829003601f168201915b50505050508152602001600382016040518060400160405290815f8201805461080c90611b14565b80601f016020809104026020016040519081016040528092919081815260200182805461083890611b14565b80156108835780601f1061085a57610100808354040283529160200191610883565b820191905f5260205f20905b81548152906001019060200180831161086657829003601f168201915b50505050508152602001600182015f9054906101000a900473ffffffffffffffffffffffffffffffffffffffff1673ffffffffffffffffffffffffffffffffffffffff1673ffffffffffffffffffffffffffffffffffffffff16815250508152602001600582016040518060600160405290815f8201805461090490611b14565b80601f016020809104026020016040519081016040528092919081815260200182805461093090611b14565b801561097b5780601f106109525761010080835404028352916020019161097b565b820191905f5260205f20905b81548152906001019060200180831161095e57829003601f168201915b5050505050815260200160018201805461099490611b14565b80601f01602080910402602001604051908101604052809291908181526020018280546109c090611b14565b8015610a0b5780601f106109e257610100808354040283529160200191610a0b565b820191905f5260205f20905b8154815290600101906020018083116109ee57829003601f168201915b5050505050815260200160028201548152505081525050915050610a79565b8080610a3590611b71565b91505061056e565b506040517f08c379a0000000000000000000000000000000000000000000000000000000008152600401610a7090611c02565b60405180910390fd5b919050565b5f805f60015481526020019081526020015f20905085816002019081610aa49190611db4565b5084815f019081610ab59190611db4565b5083816001019081610ac79190611db4565b5086816003015f019081610adb9190611db4565b5033816003016001015f6101000a81548173ffffffffffffffffffffffffffffffffffffffff021916908373ffffffffffffffffffffffffffffffffffffffff16021790555082816005015f019081610b349190611db4565b5081816005016001019081610b499190611db4565b5060025f9054906101000a900473ffffffffffffffffffffffffffffffffffffffff1673ffffffffffffffffffffffffffffffffffffffff1663c9d5881033846040518363ffffffff1660e01b8152600401610ba6929190611e92565b6020604051808303815f875af1158015610bc2573d5f803e3d5ffd5b505050506040513d601f19601f82011682018060405250810190610be69190611ed4565b816005016002018190555060015f815480929190610c0390611b71565b91905055507f4f73dd994cce0c15859d8e6ff55c939046c2f8a4db6f793d5019d06edb707e7f82604051610c379190611eff565b60405180910390a150505050505050565b5f81604051602001610c5a9190611f59565b6040516020818303038152906040528051906020012083604051602001610c819190611f59565b6040516020818303038152906040528051906020012014905092915050565b60605f60015467ffffffffffffffff811115610cbf57610cbe611487565b5b604051908082528060200260200182016040528015610cf857816020015b610ce5611164565b815260200190600190039081610cdd5790505b5090505f5b600154811015611137575f808281526020019081526020015f206040518060a00160405290815f82018054610d3190611b14565b80601f0160208091040260200160405190810160405280929190818152602001828054610d5d90611b14565b8015610da85780601f10610d7f57610100808354040283529160200191610da8565b820191905f5260205f20905b815481529060010190602001808311610d8b57829003601f168201915b50505050508152602001600182018054610dc190611b14565b80601f0160208091040260200160405190810160405280929190818152602001828054610ded90611b14565b8015610e385780601f10610e0f57610100808354040283529160200191610e38565b820191905f5260205f20905b815481529060010190602001808311610e1b57829003601f168201915b50505050508152602001600282018054610e5190611b14565b80601f0160208091040260200160405190810160405280929190818152602001828054610e7d90611b14565b8015610ec85780601f10610e9f57610100808354040283529160200191610ec8565b820191905f5260205f20905b815481529060010190602001808311610eab57829003601f168201915b50505050508152602001600382016040518060400160405290815f82018054610ef090611b14565b80601f0160208091040260200160405190810160405280929190818152602001828054610f1c90611b14565b8015610f675780601f10610f3e57610100808354040283529160200191610f67565b820191905f5260205f20905b815481529060010190602001808311610f4a57829003601f168201915b50505050508152602001600182015f9054906101000a900473ffffffffffffffffffffffffffffffffffffffff1673ffffffffffffffffffffffffffffffffffffffff1673ffffffffffffffffffffffffffffffffffffffff16815250508152602001600582016040518060600160405290815f82018054610fe890611b14565b80601f016020809104026020016040519081016040528092919081815260200182805461101490611b14565b801561105f5780601f106110365761010080835404028352916020019161105f565b820191905f5260205f20905b81548152906001019060200180831161104257829003601f168201915b5050505050815260200160018201805461107890611b14565b80601f01602080910402602001604051908101604052809291908181526020018280546110a490611b14565b80156110ef5780601f106110c6576101008083540402835291602001916110ef565b820191905f5260205f20905b8154815290600101906020018083116110d257829003601f168201915b505050505081526020016002820154815250508152505082828151811061111957611118611f6f565b5b6020026020010181905250808061112f90611b71565b915050610cfd565b508091505090565b60025f9054906101000a900473ffffffffffffffffffffffffffffffffffffffff1681565b6040518060a0016040528060608152602001606081526020016060815260200161118c61119f565b81526020016111996111ce565b81525090565b6040518060400160405280606081526020015f73ffffffffffffffffffffffffffffffffffffffff1681525090565b604051806060016040528060608152602001606081526020015f81525090565b5f604051905090565b5f80fd5b5f80fd5b5f819050919050565b611211816111ff565b811461121b575f80fd5b50565b5f8135905061122c81611208565b92915050565b5f60208284031215611247576112466111f7565b5b5f6112548482850161121e565b91505092915050565b5f81519050919050565b5f82825260208201905092915050565b5f5b83811015611294578082015181840152602081019050611279565b5f8484015250505050565b5f601f19601f8301169050919050565b5f6112b98261125d565b6112c38185611267565b93506112d3818560208601611277565b6112dc8161129f565b840191505092915050565b5f82825260208201905092915050565b5f6113018261125d565b61130b81856112e7565b935061131b818560208601611277565b6113248161129f565b840191505092915050565b5f73ffffffffffffffffffffffffffffffffffffffff82169050919050565b5f6113588261132f565b9050919050565b6113688161134e565b82525050565b5f604083015f8301518482035f86015261138882826112f7565b915050602083015161139d602086018261135f565b508091505092915050565b6113b1816111ff565b82525050565b5f606083015f8301518482035f8601526113d182826112f7565b915050602083015184820360208601526113eb82826112f7565b915050604083015161140060408601826113a8565b508091505092915050565b5f60a0820190508181035f83015261142381886112af565b9050818103602083015261143781876112af565b9050818103604083015261144b81866112af565b9050818103606083015261145f818561136e565b9050818103608083015261147381846113b7565b90509695505050505050565b5f80fd5b5f80fd5b7f4e487b71000000000000000000000000000000000000000000000000000000005f52604160045260245ffd5b6114bd8261129f565b810181811067ffffffffffffffff821117156114dc576114db611487565b5b80604052505050565b5f6114ee6111ee565b90506114fa82826114b4565b919050565b5f67ffffffffffffffff82111561151957611518611487565b5b6115228261129f565b9050602081019050919050565b828183375f83830152505050565b5f61154f61154a846114ff565b6114e5565b90508281526020810184848401111561156b5761156a611483565b5b61157684828561152f565b509392505050565b5f82601f8301126115925761159161147f565b5b81356115a284826020860161153d565b91505092915050565b5f602082840312156115c0576115bf6111f7565b5b5f82013567ffffffffffffffff8111156115dd576115dc6111fb565b5b6115e98482850161157e565b91505092915050565b5f604083015f8301518482035f86015261160c82826112f7565b9150506020830151611621602086018261135f565b508091505092915050565b5f606083015f8301518482035f86015261164682826112f7565b9150506020830151848203602086015261166082826112f7565b915050604083015161167560408601826113a8565b508091505092915050565b5f60a083015f8301518482035f86015261169a82826112f7565b915050602083015184820360208601526116b482826112f7565b915050604083015184820360408601526116ce82826112f7565b915050606083015184820360608601526116e882826115f2565b91505060808301518482036080860152611702828261162c565b9150508091505092915050565b5f6020820190508181035f8301526117278184611680565b905092915050565b5f805f805f8060c08789031215611749576117486111f7565b5b5f87013567ffffffffffffffff811115611766576117656111fb565b5b61177289828a0161157e565b965050602087013567ffffffffffffffff811115611793576117926111fb565b5b61179f89828a0161157e565b955050604087013567ffffffffffffffff8111156117c0576117bf6111fb565b5b6117cc89828a0161157e565b945050606087013567ffffffffffffffff8111156117ed576117ec6111fb565b5b6117f989828a0161157e565b935050608087013567ffffffffffffffff81111561181a576118196111fb565b5b61182689828a0161157e565b92505060a087013567ffffffffffffffff811115611847576118466111fb565b5b61185389828a0161157e565b9150509295509295509295565b5f8060408385031215611876576118756111f7565b5b5f83013567ffffffffffffffff811115611893576118926111fb565b5b61189f8582860161157e565b925050602083013567ffffffffffffffff8111156118c0576118bf6111fb565b5b6118cc8582860161157e565b9150509250929050565b5f8115159050919050565b6118ea816118d6565b82525050565b5f6020820190506119035f8301846118e1565b92915050565b5f81519050919050565b5f82825260208201905092915050565b5f819050602082019050919050565b5f60a083015f8301518482035f86015261194c82826112f7565b9150506020830151848203602086015261196682826112f7565b9150506040830151848203604086015261198082826112f7565b9150506060830151848203606086015261199a82826115f2565b915050608083015184820360808601526119b4828261162c565b9150508091505092915050565b5f6119cc8383611932565b905092915050565b5f602082019050919050565b5f6119ea82611909565b6119f48185611913565b935083602082028501611a0685611923565b805f5b85811015611a415784840389528151611a2285826119c1565b9450611a2d836119d4565b925060208a01995050600181019050611a09565b50829750879550505050505092915050565b5f6020820190508181035f830152611a6b81846119e0565b905092915050565b5f819050919050565b5f611a96611a91611a8c8461132f565b611a73565b61132f565b9050919050565b5f611aa782611a7c565b9050919050565b5f611ab882611a9d565b9050919050565b611ac881611aae565b82525050565b5f602082019050611ae15f830184611abf565b92915050565b7f4e487b71000000000000000000000000000000000000000000000000000000005f52602260045260245ffd5b5f6002820490506001821680611b2b57607f821691505b602082108103611b3e57611b3d611ae7565b5b50919050565b7f4e487b71000000000000000000000000000000000000000000000000000000005f52601160045260245ffd5b5f611b7b826111ff565b91507fffffffffffffffffffffffffffffffffffffffffffffffffffffffffffffffff8203611bad57611bac611b44565b5b600182019050919050565b7f6365727469696361646f206e616f20656e636f6e747261646f000000000000005f82015250565b5f611bec601983611267565b9150611bf782611bb8565b602082019050919050565b5f6020820190508181035f830152611c1981611be0565b9050919050565b5f819050815f5260205f209050919050565b5f6020601f8301049050919050565b5f82821b905092915050565b5f60088302611c7c7fffffffffffffffffffffffffffffffffffffffffffffffffffffffffffffffff82611c41565b611c868683611c41565b95508019841693508086168417925050509392505050565b5f611cb8611cb3611cae846111ff565b611a73565b6111ff565b9050919050565b5f819050919050565b611cd183611c9e565b611ce5611cdd82611cbf565b848454611c4d565b825550505050565b5f90565b611cf9611ced565b611d04818484611cc8565b505050565b5b81811015611d2757611d1c5f82611cf1565b600181019050611d0a565b5050565b601f821115611d6c57611d3d81611c20565b611d4684611c32565b81016020851015611d55578190505b611d69611d6185611c32565b830182611d09565b50505b505050565b5f82821c905092915050565b5f611d8c5f1984600802611d71565b1980831691505092915050565b5f611da48383611d7d565b9150826002028217905092915050565b611dbd8261125d565b67ffffffffffffffff811115611dd657611dd5611487565b5b611de08254611b14565b611deb828285611d2b565b5f60209050601f831160018114611e1c575f8415611e0a578287015190505b611e148582611d99565b865550611e7b565b601f198416611e2a86611c20565b5f5b82811015611e5157848901518255600182019150602085019450602081019050611e2c565b86831015611e6e5784890151611e6a601f891682611d7d565b8355505b6001600288020188555050505b505050505050565b611e8c8161134e565b82525050565b5f604082019050611ea55f830185611e83565b8181036020830152611eb781846112af565b90509392505050565b5f81519050611ece81611208565b92915050565b5f60208284031215611ee957611ee86111f7565b5b5f611ef684828501611ec0565b91505092915050565b5f6020820190508181035f830152611f1781846112af565b905092915050565b5f81905092915050565b5f611f338261125d565b611f3d8185611f1f565b9350611f4d818560208601611277565b80840191505092915050565b5f611f648284611f29565b915081905092915050565b7f4e487b71000000000000000000000000000000000000000000000000000000005f52603260045260245ffdfea2646970667358221220320b7e7c414a9ff77aee4cc773c8b26bb0d04d31ac31c011650caaf0c345d47e64736f6c63430008150033",
  "immutableReferences": {},
  "source": "// SPDX-License-Identifier: MIT\npragma solidity ^0.8.0;\n\nimport \"./NftIPFS.sol\";\n\ncontract Cert {\n  \n    struct cert {\n        string subject;\n        string course;\n        string date;\n        cretencials credential;\n        display displayInfo;\n    }\n    struct cretencials {\n        string issuerName;\n        address publicKey;\n    }\n\n    struct display {\n        string imageHash;\n        string metadataHash;\n        uint256 NFTid;\n    }\n  \n    mapping (uint => cert) public certs;\n\n    uint certCount;\n\n    NftIPFS public nftContract;\n\n    constructor (address nftAddress) {\n        certCount = 0;\n        nftContract = NftIPFS(nftAddress);\n    }\n\n    event certAdded(string _metadataHash);\n\n    function addCert(string memory _issuerName, string memory _date, string memory _subject, string memory _course, string memory _imageHash, string memory _metadataHash) payable external {\n        \n\n        cert storage newCert = certs[certCount];\n\n        newCert.date = _date;\n        newCert.subject = _subject;\n        newCert.course = _course;\n        newCert.credential.issuerName = _issuerName;\n        newCert.credential.publicKey = address(msg.sender);\n        newCert.displayInfo.imageHash = _imageHash;\n        newCert.displayInfo.metadataHash = _metadataHash;\n\n        newCert.displayInfo.NFTid = nftContract.mintCertificado(msg.sender ,_metadataHash);\n\n        certCount++;\n\n        emit certAdded(_metadataHash);\n    }\n    function getCert(string memory _metadataHash) view external returns(cert memory) {\n        for (uint i = 0; i < certCount; i++) {\n          if(compareStrings(certs[i].displayInfo.metadataHash, _metadataHash)) {\n            return certs[i];\n          }\n        }\n        revert(\"certiicado nao encontrado\");\n    }\n\n    function getAllCerts() view external returns(cert[] memory) {\n        cert[] memory allCerts = new cert[](certCount);\n\n        for (uint i = 0; i < certCount; i++) {\n            allCerts[i] = certs[i];\n        }\n\n        return allCerts;\n    }\n\n  function compareStrings(string memory str1, string memory str2) public pure returns (bool) {\n        return keccak256(abi.encodePacked(str1)) == keccak256(abi.encodePacked(str2));\n    }\n    \n}\n\n// problemas: no vejo como comparar se o cert ja existe, e possivel problema de performace( passando de O(1) para O(n) em getCert)\n",
  "sourcePath": "/home/alnnu/Projects/EduLedger/blockchain/contracts/Cert.sol",
  "compiler": {
    "name": "solc",
    "version": "0.8.21+commit.d9974bed.Emscripten.clang"
  },
  "schemaVersion": "3.4.16",
  "updatedAt": "2026-02-03T14:20:31.620Z",
  "networkType": "ethereum",
  "devdoc": {
    "kind": "dev",
    "methods": {},
    "version": 1
  },
  "userdoc": {
    "kind": "user",
    "methods": {},
    "version": 1
  }
}