{
  "contractName": "Cert",
  "abi": [
    {
      "inputs": [
        {
          "internalType": "address",
          "name": "nftAddress",
          "type": "address"
        }
      ],
      "stateMutability": "nonpayable",
      "type": "constructor"
    },
    {
      "anonymous": false,
      "inputs": [
        {
          "indexed": false,
          "internalType": "string",
          "name": "_metadataHash",
          "type": "string"
        }
      ],
      "name": "certAdded",
      "type": "event"
    },
    {
      "inputs": [
        {
          "internalType": "uint256",
          "name": "",
          "type": "uint256"
        }
      ],
      "name": "certs",
      "outputs": [
        {
          "internalType": "string",
          "name": "subject",
          "type": "string"
        },
        {
          "internalType": "string",
          "name": "course",
          "type": "string"
        },
        {
          "internalType": "string",
          "name": "date",
          "type": "string"
        },
        {
          "components": [
            {
              "internalType": "string",
              "name": "issuerName",
              "type": "string"
            },
            {
              "internalType": "address",
              "name": "publicKey",
              "type": "address"
            }
          ],
          "internalType": "struct Cert.cretencials",
          "name": "credential",
          "type": "tuple"
        },
        {
          "components": [
            {
              "internalType": "string",
              "name": "imageHash",
              "type": "string"
            },
            {
              "internalType": "string",
              "name": "metadataHash",
              "type": "string"
            },
            {
              "internalType": "uint256",
              "name": "NFTid",
              "type": "uint256"
            }
          ],
          "internalType": "struct Cert.display",
          "name": "displayInfo",
          "type": "tuple"
        }
      ],
      "stateMutability": "view",
      "type": "function",
      "constant": true
    },
    {
      "inputs": [],
      "name": "nftContract",
      "outputs": [
        {
          "internalType": "contract NftIPFS",
          "name": "",
          "type": "address"
        }
      ],
      "stateMutability": "view",
      "type": "function",
      "constant": true
    },
    {
      "inputs": [
        {
          "internalType": "string",
          "name": "_issuerName",
          "type": "string"
        },
        {
          "internalType": "string",
          "name": "_date",
          "type": "string"
        },
        {
          "internalType": "string",
          "name": "_subject",
          "type": "string"
        },
        {
          "internalType": "string",
          "name": "_course",
          "type": "string"
        },
        {
          "internalType": "string",
          "name": "_imageHash",
          "type": "string"
        },
        {
          "internalType": "string",
          "name": "_metadataHash",
          "type": "string"
        }
      ],
      "name": "addCert",
      "outputs": [
        {
          "components": [
            {
              "internalType": "string",
              "name": "subject",
              "type": "string"
            },
            {
              "internalType": "string",
              "name": "course",
              "type": "string"
            },
            {
              "internalType": "string",
              "name": "date",
              "type": "string"
            },
            {
              "components": [
                {
                  "internalType": "string",
                  "name": "issuerName",
                  "type": "string"
                },
                {
                  "internalType": "address",
                  "name": "publicKey",
                  "type": "address"
                }
              ],
              "internalType": "struct Cert.cretencials",
              "name": "credential",
              "type": "tuple"
            },
            {
              "components": [
                {
                  "internalType": "string",
                  "name": "imageHash",
                  "type": "string"
                },
                {
                  "internalType": "string",
                  "name": "metadataHash",
                  "type": "string"
                },
                {
                  "internalType": "uint256",
                  "name": "NFTid",
                  "type": "uint256"
                }
              ],
              "internalType": "struct Cert.display",
              "name": "displayInfo",
              "type": "tuple"
            }
          ],
          "internalType": "struct Cert.cert",
          "name": "",
          "type": "tuple"
        }
      ],
      "stateMutability": "payable",
      "type": "function",
      "payable": true
    },
    {
      "inputs": [
        {
          "internalType": "string",
          "name": "_metadataHash",
          "type": "string"
        }
      ],
      "name": "getCert",
      "outputs": [
        {
          "components": [
            {
              "internalType": "string",
              "name": "subject",
              "type": "string"
            },
            {
              "internalType": "string",
              "name": "course",
              "type": "string"
            },
            {
              "internalType": "string",
              "name": "date",
              "type": "string"
            },
            {
              "components": [
                {
                  "internalType": "string",
                  "name": "issuerName",
                  "type": "string"
                },
                {
                  "internalType": "address",
                  "name": "publicKey",
                  "type": "address"
                }
              ],
              "internalType": "struct Cert.cretencials",
              "name": "credential",
              "type": "tuple"
            },
            {
              "components": [
                {
                  "internalType": "string",
                  "name": "imageHash",
                  "type": "string"
                },
                {
                  "internalType": "string",
                  "name": "metadataHash",
                  "type": "string"
                },
                {
                  "internalType": "uint256",
                  "name": "NFTid",
                  "type": "uint256"
                }
              ],
              "internalType": "struct Cert.display",
              "name": "displayInfo",
              "type": "tuple"
            }
          ],
          "internalType": "struct Cert.cert",
          "name": "",
          "type": "tuple"
        }
      ],
      "stateMutability": "view",
      "type": "function",
      "constant": true
    },
    {
      "inputs": [],
      "name": "getAllCerts",
      "outputs": [
        {
          "components": [
            {
              "internalType": "string",
              "name": "subject",
              "type": "string"
            },
            {
              "internalType": "string",
              "name": "course",
              "type": "string"
            },
            {
              "internalType": "string",
              "name": "date",
              "type": "string"
            },
            {
              "components": [
                {
                  "internalType": "string",
                  "name": "issuerName",
                  "type": "string"
                },
                {
                  "internalType": "address",
                  "name": "publicKey",
                  "type": "address"
                }
              ],
              "internalType": "struct Cert.cretencials",
              "name": "credential",
              "type": "tuple"
            },
            {
              "components": [
                {
                  "internalType": "string",
                  "name": "imageHash",
                  "type": "string"
                },
                {
                  "internalType": "string",
                  "name": "metadataHash",
                  "type": "string"
                },
                {
                  "internalType": "uint256",
                  "name": "NFTid",
                  "type": "uint256"
                }
              ],
              "internalType": "struct Cert.display",
              "name": "displayInfo",
              "type": "tuple"
            }
          ],
          "internalType": "struct Cert.cert[]",
          "name": "",
          "type": "tuple[]"
        }
      ],
      "stateMutability": "view",
      "type": "function",
      "constant": true
    },
    {
      "inputs": [
        {
          "internalType": "string",
          "name": "str1",
          "type": "string"
        },
        {
          "internalType": "string",
          "name": "str2",
          "type": "string"
        }
      ],
      "name": "compareStrings",
      "outputs": [
        {
          "internalType": "bool",
          "name": "",
          "type": "bool"
        }
      ],
      "stateMutability": "pure",
      "type": "function",
      "constant": true
    }
  ],
  "bytecode": "0x608060405234801562000010575f80fd5b5060405162002509380380620025098339818101604052810190620000369190620000e9565b5f6001819055508060025f6101000a81548173ffffffffffffffffffffffffffffffffffffffff021916908373ffffffffffffffffffffffffffffffffffffffff1602179055505062000119565b5f80fd5b5f73ffffffffffffffffffffffffffffffffffffffff82169050919050565b5f620000b38262000088565b9050919050565b620000c581620000a7565b8114620000d0575f80fd5b50565b5f81519050620000e381620000ba565b92915050565b5f6020828403121562000101576200010062000084565b5b5f6200011084828501620000d3565b91505092915050565b6123e280620001275f395ff3fe608060405260043610610054575f3560e01c8063646750d6146100585780637b20351b14610098578063a319946a146100d4578063bed34bba14610104578063d3065fda14610140578063d56d229d1461016a575b5f80fd5b348015610063575f80fd5b5061007e60048036038101906100799190611642565b610194565b60405161008f95949392919061181b565b60405180910390f35b3480156100a3575f80fd5b506100be60048036038101906100b991906119bb565b610578565b6040516100cb9190611b1f565b60405180910390f35b6100ee60048036038101906100e99190611b3f565b610a92565b6040516100fb9190611b1f565b60405180910390f35b34801561010f575f80fd5b5061012a60048036038101906101259190611c70565b611058565b6040516101379190611d00565b60405180910390f35b34801561014b575f80fd5b506101546110b0565b6040516101619190611e63565b60405180910390f35b348015610175575f80fd5b5061017e61154f565b60405161018b9190611ede565b60405180910390f35b5f602052805f5260405f205f91509050805f0180546101b290611f24565b80601f01602080910402602001604051908101604052809291908181526020018280546101de90611f24565b80156102295780601f1061020057610100808354040283529160200191610229565b820191905f5260205f20905b81548152906001019060200180831161020c57829003601f168201915b50505050509080600101805461023e90611f24565b80601f016020809104026020016040519081016040528092919081815260200182805461026a90611f24565b80156102b55780601f1061028c576101008083540402835291602001916102b5565b820191905f5260205f20905b81548152906001019060200180831161029857829003601f168201915b5050505050908060020180546102ca90611f24565b80601f01602080910402602001604051908101604052809291908181526020018280546102f690611f24565b80156103415780601f1061031857610100808354040283529160200191610341565b820191905f5260205f20905b81548152906001019060200180831161032457829003601f168201915b505050505090806003016040518060400160405290815f8201805461036590611f24565b80601f016020809104026020016040519081016040528092919081815260200182805461039190611f24565b80156103dc5780601f106103b3576101008083540402835291602001916103dc565b820191905f5260205f20905b8154815290600101906020018083116103bf57829003601f168201915b50505050508152602001600182015f9054906101000a900473ffffffffffffffffffffffffffffffffffffffff1673ffffffffffffffffffffffffffffffffffffffff1673ffffffffffffffffffffffffffffffffffffffff168152505090806005016040518060600160405290815f8201805461045990611f24565b80601f016020809104026020016040519081016040528092919081815260200182805461048590611f24565b80156104d05780601f106104a7576101008083540402835291602001916104d0565b820191905f5260205f20905b8154815290600101906020018083116104b357829003601f168201915b505050505081526020016001820180546104e990611f24565b80601f016020809104026020016040519081016040528092919081815260200182805461051590611f24565b80156105605780601f1061053757610100808354040283529160200191610560565b820191905f5260205f20905b81548152906001019060200180831161054357829003601f168201915b50505050508152602001600282015481525050905085565b610580611574565b5f5b600154811015610a51576106325f808381526020019081526020015f2060050160010180546105b090611f24565b80601f01602080910402602001604051908101604052809291908181526020018280546105dc90611f24565b80156106275780601f106105fe57610100808354040283529160200191610627565b820191905f5260205f20905b81548152906001019060200180831161060a57829003601f168201915b505050505084611058565b15610a3e575f808281526020019081526020015f206040518060a00160405290815f8201805461066190611f24565b80601f016020809104026020016040519081016040528092919081815260200182805461068d90611f24565b80156106d85780601f106106af576101008083540402835291602001916106d8565b820191905f5260205f20905b8154815290600101906020018083116106bb57829003601f168201915b505050505081526020016001820180546106f190611f24565b80601f016020809104026020016040519081016040528092919081815260200182805461071d90611f24565b80156107685780601f1061073f57610100808354040283529160200191610768565b820191905f5260205f20905b81548152906001019060200180831161074b57829003601f168201915b5050505050815260200160028201805461078190611f24565b80601f01602080910402602001604051908101604052809291908181526020018280546107ad90611f24565b80156107f85780601f106107cf576101008083540402835291602001916107f8565b820191905f5260205f20905b8154815290600101906020018083116107db57829003601f168201915b50505050508152602001600382016040518060400160405290815f8201805461082090611f24565b80601f016020809104026020016040519081016040528092919081815260200182805461084c90611f24565b80156108975780601f1061086e57610100808354040283529160200191610897565b820191905f5260205f20905b81548152906001019060200180831161087a57829003601f168201915b50505050508152602001600182015f9054906101000a900473ffffffffffffffffffffffffffffffffffffffff1673ffffffffffffffffffffffffffffffffffffffff1673ffffffffffffffffffffffffffffffffffffffff16815250508152602001600582016040518060600160405290815f8201805461091890611f24565b80601f016020809104026020016040519081016040528092919081815260200182805461094490611f24565b801561098f5780601f106109665761010080835404028352916020019161098f565b820191905f5260205f20905b81548152906001019060200180831161097257829003601f168201915b505050505081526020016001820180546109a890611f24565b80601f01602080910402602001604051908101604052809291908181526020018280546109d490611f24565b8015610a1f5780601f106109f657610100808354040283529160200191610a1f565b820191905f5260205f20905b815481529060010190602001808311610a0257829003601f168201915b5050505050815260200160028201548152505081525050915050610a8d565b8080610a4990611f81565b915050610582565b506040517f08c379a0000000000000000000000000000000000000000000000000000000008152600401610a8490612012565b60405180910390fd5b919050565b610a9a611574565b5f805f60015481526020019081526020015f20905086816002019081610ac091906121c4565b5085815f019081610ad191906121c4565b5084816001019081610ae391906121c4565b5087816003015f019081610af791906121c4565b5033816003016001015f6101000a81548173ffffffffffffffffffffffffffffffffffffffff021916908373ffffffffffffffffffffffffffffffffffffffff16021790555083816005015f019081610b5091906121c4565b5082816005016001019081610b6591906121c4565b5060025f9054906101000a900473ffffffffffffffffffffffffffffffffffffffff1673ffffffffffffffffffffffffffffffffffffffff1663c9d5881033856040518363ffffffff1660e01b8152600401610bc29291906122a2565b6020604051808303815f875af1158015610bde573d5f803e3d5ffd5b505050506040513d601f19601f82011682018060405250810190610c0291906122e4565b816005016002018190555060015f815480929190610c1f90611f81565b91905055507f4f73dd994cce0c15859d8e6ff55c939046c2f8a4db6f793d5019d06edb707e7f83604051610c53919061230f565b60405180910390a1806040518060a00160405290815f82018054610c7690611f24565b80601f0160208091040260200160405190810160405280929190818152602001828054610ca290611f24565b8015610ced5780601f10610cc457610100808354040283529160200191610ced565b820191905f5260205f20905b815481529060010190602001808311610cd057829003601f168201915b50505050508152602001600182018054610d0690611f24565b80601f0160208091040260200160405190810160405280929190818152602001828054610d3290611f24565b8015610d7d5780601f10610d5457610100808354040283529160200191610d7d565b820191905f5260205f20905b815481529060010190602001808311610d6057829003601f168201915b50505050508152602001600282018054610d9690611f24565b80601f0160208091040260200160405190810160405280929190818152602001828054610dc290611f24565b8015610e0d5780601f10610de457610100808354040283529160200191610e0d565b820191905f5260205f20905b815481529060010190602001808311610df057829003601f168201915b50505050508152602001600382016040518060400160405290815f82018054610e3590611f24565b80601f0160208091040260200160405190810160405280929190818152602001828054610e6190611f24565b8015610eac5780601f10610e8357610100808354040283529160200191610eac565b820191905f5260205f20905b815481529060010190602001808311610e8f57829003601f168201915b50505050508152602001600182015f9054906101000a900473ffffffffffffffffffffffffffffffffffffffff1673ffffffffffffffffffffffffffffffffffffffff1673ffffffffffffffffffffffffffffffffffffffff16815250508152602001600582016040518060600160405290815f82018054610f2d90611f24565b80601f0160208091040260200160405190810160405280929190818152602001828054610f5990611f24565b8015610fa45780601f10610f7b57610100808354040283529160200191610fa4565b820191905f5260205f20905b815481529060010190602001808311610f8757829003601f168201915b50505050508152602001600182018054610fbd90611f24565b80601f0160208091040260200160405190810160405280929190818152602001828054610fe990611f24565b80156110345780601f1061100b57610100808354040283529160200191611034565b820191905f5260205f20905b81548152906001019060200180831161101757829003601f168201915b50505050508152602001600282015481525050815250509150509695505050505050565b5f8160405160200161106a9190612369565b60405160208183030381529060405280519060200120836040516020016110919190612369565b6040516020818303038152906040528051906020012014905092915050565b60605f60015467ffffffffffffffff8111156110cf576110ce611897565b5b60405190808252806020026020018201604052801561110857816020015b6110f5611574565b8152602001906001900390816110ed5790505b5090505f5b600154811015611547575f808281526020019081526020015f206040518060a00160405290815f8201805461114190611f24565b80601f016020809104026020016040519081016040528092919081815260200182805461116d90611f24565b80156111b85780601f1061118f576101008083540402835291602001916111b8565b820191905f5260205f20905b81548152906001019060200180831161119b57829003601f168201915b505050505081526020016001820180546111d190611f24565b80601f01602080910402602001604051908101604052809291908181526020018280546111fd90611f24565b80156112485780601f1061121f57610100808354040283529160200191611248565b820191905f5260205f20905b81548152906001019060200180831161122b57829003601f168201915b5050505050815260200160028201805461126190611f24565b80601f016020809104026020016040519081016040528092919081815260200182805461128d90611f24565b80156112d85780601f106112af576101008083540402835291602001916112d8565b820191905f5260205f20905b8154815290600101906020018083116112bb57829003601f168201915b50505050508152602001600382016040518060400160405290815f8201805461130090611f24565b80601f016020809104026020016040519081016040528092919081815260200182805461132c90611f24565b80156113775780601f1061134e57610100808354040283529160200191611377565b820191905f5260205f20905b81548152906001019060200180831161135a57829003601f168201915b50505050508152602001600182015f9054906101000a900473ffffffffffffffffffffffffffffffffffffffff1673ffffffffffffffffffffffffffffffffffffffff1673ffffffffffffffffffffffffffffffffffffffff16815250508152602001600582016040518060600160405290815f820180546113f890611f24565b80601f016020809104026020016040519081016040528092919081815260200182805461142490611f24565b801561146f5780601f106114465761010080835404028352916020019161146f565b820191905f5260205f20905b81548152906001019060200180831161145257829003601f168201915b5050505050815260200160018201805461148890611f24565b80601f01602080910402602001604051908101604052809291908181526020018280546114b490611f24565b80156114ff5780601f106114d6576101008083540402835291602001916114ff565b820191905f5260205f20905b8154815290600101906020018083116114e257829003601f168201915b50505050508152602001600282015481525050815250508282815181106115295761152861237f565b5b6020026020010181905250808061153f90611f81565b91505061110d565b508091505090565b60025f9054906101000a900473ffffffffffffffffffffffffffffffffffffffff1681565b6040518060a0016040528060608152602001606081526020016060815260200161159c6115af565b81526020016115a96115de565b81525090565b6040518060400160405280606081526020015f73ffffffffffffffffffffffffffffffffffffffff1681525090565b604051806060016040528060608152602001606081526020015f81525090565b5f604051905090565b5f80fd5b5f80fd5b5f819050919050565b6116218161160f565b811461162b575f80fd5b50565b5f8135905061163c81611618565b92915050565b5f6020828403121561165757611656611607565b5b5f6116648482850161162e565b91505092915050565b5f81519050919050565b5f82825260208201905092915050565b5f5b838110156116a4578082015181840152602081019050611689565b5f8484015250505050565b5f601f19601f8301169050919050565b5f6116c98261166d565b6116d38185611677565b93506116e3818560208601611687565b6116ec816116af565b840191505092915050565b5f82825260208201905092915050565b5f6117118261166d565b61171b81856116f7565b935061172b818560208601611687565b611734816116af565b840191505092915050565b5f73ffffffffffffffffffffffffffffffffffffffff82169050919050565b5f6117688261173f565b9050919050565b6117788161175e565b82525050565b5f604083015f8301518482035f8601526117988282611707565b91505060208301516117ad602086018261176f565b508091505092915050565b6117c18161160f565b82525050565b5f606083015f8301518482035f8601526117e18282611707565b915050602083015184820360208601526117fb8282611707565b915050604083015161181060408601826117b8565b508091505092915050565b5f60a0820190508181035f83015261183381886116bf565b9050818103602083015261184781876116bf565b9050818103604083015261185b81866116bf565b9050818103606083015261186f818561177e565b9050818103608083015261188381846117c7565b90509695505050505050565b5f80fd5b5f80fd5b7f4e487b71000000000000000000000000000000000000000000000000000000005f52604160045260245ffd5b6118cd826116af565b810181811067ffffffffffffffff821117156118ec576118eb611897565b5b80604052505050565b5f6118fe6115fe565b905061190a82826118c4565b919050565b5f67ffffffffffffffff82111561192957611928611897565b5b611932826116af565b9050602081019050919050565b828183375f83830152505050565b5f61195f61195a8461190f565b6118f5565b90508281526020810184848401111561197b5761197a611893565b5b61198684828561193f565b509392505050565b5f82601f8301126119a2576119a161188f565b5b81356119b284826020860161194d565b91505092915050565b5f602082840312156119d0576119cf611607565b5b5f82013567ffffffffffffffff8111156119ed576119ec61160b565b5b6119f98482850161198e565b91505092915050565b5f604083015f8301518482035f860152611a1c8282611707565b9150506020830151611a31602086018261176f565b508091505092915050565b5f606083015f8301518482035f860152611a568282611707565b91505060208301518482036020860152611a708282611707565b9150506040830151611a8560408601826117b8565b508091505092915050565b5f60a083015f8301518482035f860152611aaa8282611707565b91505060208301518482036020860152611ac48282611707565b91505060408301518482036040860152611ade8282611707565b91505060608301518482036060860152611af88282611a02565b91505060808301518482036080860152611b128282611a3c565b9150508091505092915050565b5f6020820190508181035f830152611b378184611a90565b905092915050565b5f805f805f8060c08789031215611b5957611b58611607565b5b5f87013567ffffffffffffffff811115611b7657611b7561160b565b5b611b8289828a0161198e565b965050602087013567ffffffffffffffff811115611ba357611ba261160b565b5b611baf89828a0161198e565b955050604087013567ffffffffffffffff811115611bd057611bcf61160b565b5b611bdc89828a0161198e565b945050606087013567ffffffffffffffff811115611bfd57611bfc61160b565b5b611c0989828a0161198e565b935050608087013567ffffffffffffffff811115611c2a57611c2961160b565b5b611c3689828a0161198e565b92505060a087013567ffffffffffffffff811115611c5757611c5661160b565b5b611c6389828a0161198e565b9150509295509295509295565b5f8060408385031215611c8657611c85611607565b5b5f83013567ffffffffffffffff811115611ca357611ca261160b565b5b611caf8582860161198e565b925050602083013567ffffffffffffffff811115611cd057611ccf61160b565b5b611cdc8582860161198e565b9150509250929050565b5f8115159050919050565b611cfa81611ce6565b82525050565b5f602082019050611d135f830184611cf1565b92915050565b5f81519050919050565b5f82825260208201905092915050565b5f819050602082019050919050565b5f60a083015f8301518482035f860152611d5c8282611707565b91505060208301518482036020860152611d768282611707565b91505060408301518482036040860152611d908282611707565b91505060608301518482036060860152611daa8282611a02565b91505060808301518482036080860152611dc48282611a3c565b9150508091505092915050565b5f611ddc8383611d42565b905092915050565b5f602082019050919050565b5f611dfa82611d19565b611e048185611d23565b935083602082028501611e1685611d33565b805f5b85811015611e515784840389528151611e328582611dd1565b9450611e3d83611de4565b925060208a01995050600181019050611e19565b50829750879550505050505092915050565b5f6020820190508181035f830152611e7b8184611df0565b905092915050565b5f819050919050565b5f611ea6611ea1611e9c8461173f565b611e83565b61173f565b9050919050565b5f611eb782611e8c565b9050919050565b5f611ec882611ead565b9050919050565b611ed881611ebe565b82525050565b5f602082019050611ef15f830184611ecf565b92915050565b7f4e487b71000000000000000000000000000000000000000000000000000000005f52602260045260245ffd5b5f6002820490506001821680611f3b57607f821691505b602082108103611f4e57611f4d611ef7565b5b50919050565b7f4e487b71000000000000000000000000000000000000000000000000000000005f52601160045260245ffd5b5f611f8b8261160f565b91507fffffffffffffffffffffffffffffffffffffffffffffffffffffffffffffffff8203611fbd57611fbc611f54565b5b600182019050919050565b7f6365727469696361646f206e616f20656e636f6e747261646f000000000000005f82015250565b5f611ffc601983611677565b915061200782611fc8565b602082019050919050565b5f6020820190508181035f83015261202981611ff0565b9050919050565b5f819050815f5260205f209050919050565b5f6020601f8301049050919050565b5f82821b905092915050565b5f6008830261208c7fffffffffffffffffffffffffffffffffffffffffffffffffffffffffffffffff82612051565b6120968683612051565b95508019841693508086168417925050509392505050565b5f6120c86120c36120be8461160f565b611e83565b61160f565b9050919050565b5f819050919050565b6120e1836120ae565b6120f56120ed826120cf565b84845461205d565b825550505050565b5f90565b6121096120fd565b6121148184846120d8565b505050565b5b818110156121375761212c5f82612101565b60018101905061211a565b5050565b601f82111561217c5761214d81612030565b61215684612042565b81016020851015612165578190505b61217961217185612042565b830182612119565b50505b505050565b5f82821c905092915050565b5f61219c5f1984600802612181565b1980831691505092915050565b5f6121b4838361218d565b9150826002028217905092915050565b6121cd8261166d565b67ffffffffffffffff8111156121e6576121e5611897565b5b6121f08254611f24565b6121fb82828561213b565b5f60209050601f83116001811461222c575f841561221a578287015190505b61222485826121a9565b86555061228b565b601f19841661223a86612030565b5f5b828110156122615784890151825560018201915060208501945060208101905061223c565b8683101561227e578489015161227a601f89168261218d565b8355505b6001600288020188555050505b505050505050565b61229c8161175e565b82525050565b5f6040820190506122b55f830185612293565b81810360208301526122c781846116bf565b90509392505050565b5f815190506122de81611618565b92915050565b5f602082840312156122f9576122f8611607565b5b5f612306848285016122d0565b91505092915050565b5f6020820190508181035f83015261232781846116bf565b905092915050565b5f81905092915050565b5f6123438261166d565b61234d818561232f565b935061235d818560208601611687565b80840191505092915050565b5f6123748284612339565b915081905092915050565b7f4e487b71000000000000000000000000000000000000000000000000000000005f52603260045260245ffdfea264697066735822122098c3ac9f814cfcd57f62d65168872b857e10cdd0a7d7c9d7057e5c066985c08b64736f6c63430008150033",
  "immutableReferences": {},
  "source": "// SPDX-License-Identifier: MIT\npragma solidity ^0.8.0;\n\nimport \"./NftIPFS.sol\";\n\ncontract Cert {\n  \n    struct cert {\n        string subject;\n        string course;\n        string date;\n        cretencials credential;\n        display displayInfo;\n    }\n    struct cretencials {\n        string issuerName;\n        address publicKey;\n    }\n\n    struct display {\n        string imageHash;\n        string metadataHash;\n        uint256 NFTid;\n    }\n  \n    mapping (uint => cert) public certs;\n\n    uint certCount;\n\n    NftIPFS public nftContract;\n\n    constructor (address nftAddress) {\n        certCount = 0;\n        nftContract = NftIPFS(nftAddress);\n    }\n\n    event certAdded(string _metadataHash);\n\n    function addCert(string memory _issuerName, string memory _date, string memory _subject, string memory _course, string memory _imageHash, string memory _metadataHash) payable external returns (cert memory) {\n        \n\n        cert storage newCert = certs[certCount];\n\n        newCert.date = _date;\n        newCert.subject = _subject;\n        newCert.course = _course;\n        newCert.credential.issuerName = _issuerName;\n        newCert.credential.publicKey = address(msg.sender);\n        newCert.displayInfo.imageHash = _imageHash;\n        newCert.displayInfo.metadataHash = _metadataHash;\n\n        newCert.displayInfo.NFTid = nftContract.mintCertificado(msg.sender ,_metadataHash);\n\n        certCount++;\n\n        emit certAdded(_metadataHash);\n        return newCert;\n    }\n    function getCert(string memory _metadataHash) view external returns(cert memory) {\n        for (uint i = 0; i < certCount; i++) {\n          if(compareStrings(certs[i].displayInfo.metadataHash, _metadataHash)) {\n            return certs[i];\n          }\n        }\n        revert(\"certiicado nao encontrado\");\n    }\n\n    function getAllCerts() view external returns(cert[] memory) {\n        cert[] memory allCerts = new cert[](certCount);\n\n        for (uint i = 0; i < certCount; i++) {\n            allCerts[i] = certs[i];\n        }\n\n        return allCerts;\n    }\n\n  function compareStrings(string memory str1, string memory str2) public pure returns (bool) {\n        return keccak256(abi.encodePacked(str1)) == keccak256(abi.encodePacked(str2));\n    }\n    \n}\n\n// problemas: no vejo como comparar se o cert ja existe, e possivel problema de performace( passando de O(1) para O(n) em getCert)\n",
  "sourcePath": "/home/alnnu/Projects/EduLedger/blockchain/contracts/Cert.sol",
  "compiler": {
    "name": "solc",
    "version": "0.8.21+commit.d9974bed.Emscripten.clang"
  },
  "schemaVersion": "3.4.16",
  "updatedAt": "2026-01-15T17:26:27.801Z",
  "networkType": "ethereum",
  "devdoc": {
    "kind": "dev",
    "methods": {},
    "version": 1
  },
  "userdoc": {
    "kind": "user",
    "methods": {},
    "version": 1
  }
}