{
  "contractName": "Cert",
  "abi": [
    {
      "inputs": [],
      "stateMutability": "nonpayable",
      "type": "constructor"
    },
    {
      "inputs": [
        {
          "internalType": "uint256",
          "name": "",
          "type": "uint256"
        }
      ],
      "name": "certs",
      "outputs": [
        {
          "internalType": "uint256",
          "name": "id",
          "type": "uint256"
        },
        {
          "internalType": "string",
          "name": "issuer",
          "type": "string"
        },
        {
          "internalType": "string",
          "name": "issuernceDate",
          "type": "string"
        },
        {
          "components": [
            {
              "internalType": "string",
              "name": "id",
              "type": "string"
            },
            {
              "internalType": "string",
              "name": "mane",
              "type": "string"
            },
            {
              "internalType": "string",
              "name": "email",
              "type": "string"
            },
            {
              "internalType": "address",
              "name": "publicKey",
              "type": "address"
            }
          ],
          "internalType": "struct Cert.cretencials",
          "name": "credentialSubject",
          "type": "tuple"
        },
        {
          "components": [
            {
              "internalType": "string",
              "name": "contentType",
              "type": "string"
            },
            {
              "internalType": "string",
              "name": "content",
              "type": "string"
            }
          ],
          "internalType": "struct Cert.display",
          "name": "displayInfo",
          "type": "tuple"
        }
      ],
      "stateMutability": "view",
      "type": "function"
    },
    {
      "inputs": [],
      "name": "addCert",
      "outputs": [
        {
          "components": [
            {
              "internalType": "string[]",
              "name": "context",
              "type": "string[]"
            },
            {
              "internalType": "uint256",
              "name": "id",
              "type": "uint256"
            },
            {
              "internalType": "string[]",
              "name": "certType",
              "type": "string[]"
            },
            {
              "internalType": "string",
              "name": "issuer",
              "type": "string"
            },
            {
              "internalType": "string",
              "name": "issuernceDate",
              "type": "string"
            },
            {
              "components": [
                {
                  "internalType": "string",
                  "name": "id",
                  "type": "string"
                },
                {
                  "internalType": "string",
                  "name": "mane",
                  "type": "string"
                },
                {
                  "internalType": "string",
                  "name": "email",
                  "type": "string"
                },
                {
                  "internalType": "address",
                  "name": "publicKey",
                  "type": "address"
                }
              ],
              "internalType": "struct Cert.cretencials",
              "name": "credentialSubject",
              "type": "tuple"
            },
            {
              "components": [
                {
                  "internalType": "string",
                  "name": "contentType",
                  "type": "string"
                },
                {
                  "internalType": "string",
                  "name": "content",
                  "type": "string"
                }
              ],
              "internalType": "struct Cert.display",
              "name": "displayInfo",
              "type": "tuple"
            }
          ],
          "internalType": "struct Cert.cert",
          "name": "",
          "type": "tuple"
        }
      ],
      "stateMutability": "nonpayable",
      "type": "function"
    },
    {
      "inputs": [
        {
          "internalType": "uint256",
          "name": "id",
          "type": "uint256"
        }
      ],
      "name": "getCert",
      "outputs": [
        {
          "components": [
            {
              "internalType": "string[]",
              "name": "context",
              "type": "string[]"
            },
            {
              "internalType": "uint256",
              "name": "id",
              "type": "uint256"
            },
            {
              "internalType": "string[]",
              "name": "certType",
              "type": "string[]"
            },
            {
              "internalType": "string",
              "name": "issuer",
              "type": "string"
            },
            {
              "internalType": "string",
              "name": "issuernceDate",
              "type": "string"
            },
            {
              "components": [
                {
                  "internalType": "string",
                  "name": "id",
                  "type": "string"
                },
                {
                  "internalType": "string",
                  "name": "mane",
                  "type": "string"
                },
                {
                  "internalType": "string",
                  "name": "email",
                  "type": "string"
                },
                {
                  "internalType": "address",
                  "name": "publicKey",
                  "type": "address"
                }
              ],
              "internalType": "struct Cert.cretencials",
              "name": "credentialSubject",
              "type": "tuple"
            },
            {
              "components": [
                {
                  "internalType": "string",
                  "name": "contentType",
                  "type": "string"
                },
                {
                  "internalType": "string",
                  "name": "content",
                  "type": "string"
                }
              ],
              "internalType": "struct Cert.display",
              "name": "displayInfo",
              "type": "tuple"
            }
          ],
          "internalType": "struct Cert.cert",
          "name": "",
          "type": "tuple"
        }
      ],
      "stateMutability": "view",
      "type": "function"
    }
  ],
  "bytecode": "0x608060405234801561000f575f80fd5b505f600181905550611ee3806100245f395ff3fe608060405234801561000f575f80fd5b506004361061003f575f3560e01c8063646750d614610043578063735e83a614610077578063b449e71614610095575b5f80fd5b61005d600480360381019061005891906115f9565b6100c5565b60405161006e9594939291906117f3565b60405180910390f35b61007f61053a565b60405161008c9190611a95565b60405180910390f35b6100af60048036038101906100aa91906115f9565b610e98565b6040516100bc9190611a95565b60405180910390f35b5f602052805f5260405f205f915090508060010154908060030180546100ea90611ae2565b80601f016020809104026020016040519081016040528092919081815260200182805461011690611ae2565b80156101615780601f1061013857610100808354040283529160200191610161565b820191905f5260205f20905b81548152906001019060200180831161014457829003601f168201915b50505050509080600401805461017690611ae2565b80601f01602080910402602001604051908101604052809291908181526020018280546101a290611ae2565b80156101ed5780601f106101c4576101008083540402835291602001916101ed565b820191905f5260205f20905b8154815290600101906020018083116101d057829003601f168201915b505050505090806005016040518060800160405290815f8201805461021190611ae2565b80601f016020809104026020016040519081016040528092919081815260200182805461023d90611ae2565b80156102885780601f1061025f57610100808354040283529160200191610288565b820191905f5260205f20905b81548152906001019060200180831161026b57829003601f168201915b505050505081526020016001820180546102a190611ae2565b80601f01602080910402602001604051908101604052809291908181526020018280546102cd90611ae2565b80156103185780601f106102ef57610100808354040283529160200191610318565b820191905f5260205f20905b8154815290600101906020018083116102fb57829003601f168201915b5050505050815260200160028201805461033190611ae2565b80601f016020809104026020016040519081016040528092919081815260200182805461035d90611ae2565b80156103a85780601f1061037f576101008083540402835291602001916103a8565b820191905f5260205f20905b81548152906001019060200180831161038b57829003601f168201915b50505050508152602001600382015f9054906101000a900473ffffffffffffffffffffffffffffffffffffffff1673ffffffffffffffffffffffffffffffffffffffff1673ffffffffffffffffffffffffffffffffffffffff168152505090806009016040518060400160405290815f8201805461042590611ae2565b80601f016020809104026020016040519081016040528092919081815260200182805461045190611ae2565b801561049c5780601f106104735761010080835404028352916020019161049c565b820191905f5260205f20905b81548152906001019060200180831161047f57829003601f168201915b505050505081526020016001820180546104b590611ae2565b80601f01602080910402602001604051908101604052809291908181526020018280546104e190611ae2565b801561052c5780601f106105035761010080835404028352916020019161052c565b820191905f5260205f20905b81548152906001019060200180831161050f57829003601f168201915b505050505081525050905085565b610542611523565b5f805f60015481526020019081526020015f2090506001548160010181905550805f018060018154018082558091505060019003905f5260205f20015f604051806060016040528060268152602001611e8860269139909190915090816105a99190611cdc565b50806002018060018154018082558091505060019003905f5260205f20015f6040518060400160405280600581526020017f74657374650000000000000000000000000000000000000000000000000000008152509091909150908161060f9190611cdc565b506040518060400160405280600c81526020017f49737375657220546573746500000000000000000000000000000000000000008152508160030190816106569190611cdc565b506040518060400160405280600a81526020017f323032332d31302d30310000000000000000000000000000000000000000000081525081600401908161069d9190611cdc565b506040518060400160405280600881526020017f7375626a65637431000000000000000000000000000000000000000000000000815250816005015f0190816106e69190611cdc565b506040518060400160405280600c81526020017f5375626a656374204e616d6500000000000000000000000000000000000000008152508160050160010190816107309190611cdc565b506040518060400160405280600981526020017f746573744074657374000000000000000000000000000000000000000000000081525081600501600201908161077a9190611cdc565b5033816005016003015f6101000a81548173ffffffffffffffffffffffffffffffffffffffff021916908373ffffffffffffffffffffffffffffffffffffffff1602179055506040518060400160405280601081526020017f6170706c69636174696f6e2f6a736f6e00000000000000000000000000000000815250816009015f0190816108089190611cdc565b506040518060400160405280600c81526020017f7b6d73673a2074657374657d00000000000000000000000000000000000000008152508160090160010190816108529190611cdc565b5060015f81548092919061086590611dd8565b9190505550806040518060e00160405290815f8201805480602002602001604051908101604052809291908181526020015f905b82821015610941578382905f5260205f200180546108b690611ae2565b80601f01602080910402602001604051908101604052809291908181526020018280546108e290611ae2565b801561092d5780601f106109045761010080835404028352916020019161092d565b820191905f5260205f20905b81548152906001019060200180831161091057829003601f168201915b505050505081526020019060010190610899565b5050505081526020016001820154815260200160028201805480602002602001604051908101604052809291908181526020015f905b82821015610a1f578382905f5260205f2001805461099490611ae2565b80601f01602080910402602001604051908101604052809291908181526020018280546109c090611ae2565b8015610a0b5780601f106109e257610100808354040283529160200191610a0b565b820191905f5260205f20905b8154815290600101906020018083116109ee57829003601f168201915b505050505081526020019060010190610977565b505050508152602001600382018054610a3790611ae2565b80601f0160208091040260200160405190810160405280929190818152602001828054610a6390611ae2565b8015610aae5780601f10610a8557610100808354040283529160200191610aae565b820191905f5260205f20905b815481529060010190602001808311610a9157829003601f168201915b50505050508152602001600482018054610ac790611ae2565b80601f0160208091040260200160405190810160405280929190818152602001828054610af390611ae2565b8015610b3e5780601f10610b1557610100808354040283529160200191610b3e565b820191905f5260205f20905b815481529060010190602001808311610b2157829003601f168201915b50505050508152602001600582016040518060800160405290815f82018054610b6690611ae2565b80601f0160208091040260200160405190810160405280929190818152602001828054610b9290611ae2565b8015610bdd5780601f10610bb457610100808354040283529160200191610bdd565b820191905f5260205f20905b815481529060010190602001808311610bc057829003601f168201915b50505050508152602001600182018054610bf690611ae2565b80601f0160208091040260200160405190810160405280929190818152602001828054610c2290611ae2565b8015610c6d5780601f10610c4457610100808354040283529160200191610c6d565b820191905f5260205f20905b815481529060010190602001808311610c5057829003601f168201915b50505050508152602001600282018054610c8690611ae2565b80601f0160208091040260200160405190810160405280929190818152602001828054610cb290611ae2565b8015610cfd5780601f10610cd457610100808354040283529160200191610cfd565b820191905f5260205f20905b815481529060010190602001808311610ce057829003601f168201915b50505050508152602001600382015f9054906101000a900473ffffffffffffffffffffffffffffffffffffffff1673ffffffffffffffffffffffffffffffffffffffff1673ffffffffffffffffffffffffffffffffffffffff16815250508152602001600982016040518060400160405290815f82018054610d7e90611ae2565b80601f0160208091040260200160405190810160405280929190818152602001828054610daa90611ae2565b8015610df55780601f10610dcc57610100808354040283529160200191610df5565b820191905f5260205f20905b815481529060010190602001808311610dd857829003601f168201915b50505050508152602001600182018054610e0e90611ae2565b80601f0160208091040260200160405190810160405280929190818152602001828054610e3a90611ae2565b8015610e855780601f10610e5c57610100808354040283529160200191610e85565b820191905f5260205f20905b815481529060010190602001808311610e6857829003601f168201915b5050505050815250508152505091505090565b610ea0611523565b600154821115610ee5576040517f08c379a0000000000000000000000000000000000000000000000000000000008152600401610edc90611e69565b60405180910390fd5b5f808381526020019081526020015f206040518060e00160405290815f8201805480602002602001604051908101604052809291908181526020015f905b82821015610fcb578382905f5260205f20018054610f4090611ae2565b80601f0160208091040260200160405190810160405280929190818152602001828054610f6c90611ae2565b8015610fb75780601f10610f8e57610100808354040283529160200191610fb7565b820191905f5260205f20905b815481529060010190602001808311610f9a57829003601f168201915b505050505081526020019060010190610f23565b5050505081526020016001820154815260200160028201805480602002602001604051908101604052809291908181526020015f905b828210156110a9578382905f5260205f2001805461101e90611ae2565b80601f016020809104026020016040519081016040528092919081815260200182805461104a90611ae2565b80156110955780601f1061106c57610100808354040283529160200191611095565b820191905f5260205f20905b81548152906001019060200180831161107857829003601f168201915b505050505081526020019060010190611001565b5050505081526020016003820180546110c190611ae2565b80601f01602080910402602001604051908101604052809291908181526020018280546110ed90611ae2565b80156111385780601f1061110f57610100808354040283529160200191611138565b820191905f5260205f20905b81548152906001019060200180831161111b57829003601f168201915b5050505050815260200160048201805461115190611ae2565b80601f016020809104026020016040519081016040528092919081815260200182805461117d90611ae2565b80156111c85780601f1061119f576101008083540402835291602001916111c8565b820191905f5260205f20905b8154815290600101906020018083116111ab57829003601f168201915b50505050508152602001600582016040518060800160405290815f820180546111f090611ae2565b80601f016020809104026020016040519081016040528092919081815260200182805461121c90611ae2565b80156112675780601f1061123e57610100808354040283529160200191611267565b820191905f5260205f20905b81548152906001019060200180831161124a57829003601f168201915b5050505050815260200160018201805461128090611ae2565b80601f01602080910402602001604051908101604052809291908181526020018280546112ac90611ae2565b80156112f75780601f106112ce576101008083540402835291602001916112f7565b820191905f5260205f20905b8154815290600101906020018083116112da57829003601f168201915b5050505050815260200160028201805461131090611ae2565b80601f016020809104026020016040519081016040528092919081815260200182805461133c90611ae2565b80156113875780601f1061135e57610100808354040283529160200191611387565b820191905f5260205f20905b81548152906001019060200180831161136a57829003601f168201915b50505050508152602001600382015f9054906101000a900473ffffffffffffffffffffffffffffffffffffffff1673ffffffffffffffffffffffffffffffffffffffff1673ffffffffffffffffffffffffffffffffffffffff16815250508152602001600982016040518060400160405290815f8201805461140890611ae2565b80601f016020809104026020016040519081016040528092919081815260200182805461143490611ae2565b801561147f5780601f106114565761010080835404028352916020019161147f565b820191905f5260205f20905b81548152906001019060200180831161146257829003601f168201915b5050505050815260200160018201805461149890611ae2565b80601f01602080910402602001604051908101604052809291908181526020018280546114c490611ae2565b801561150f5780601f106114e65761010080835404028352916020019161150f565b820191905f5260205f20905b8154815290600101906020018083116114f257829003601f168201915b505050505081525050815250509050919050565b6040518060e00160405280606081526020015f815260200160608152602001606081526020016060815260200161155861156b565b81526020016115656115a8565b81525090565b60405180608001604052806060815260200160608152602001606081526020015f73ffffffffffffffffffffffffffffffffffffffff1681525090565b604051806040016040528060608152602001606081525090565b5f80fd5b5f819050919050565b6115d8816115c6565b81146115e2575f80fd5b50565b5f813590506115f3816115cf565b92915050565b5f6020828403121561160e5761160d6115c2565b5b5f61161b848285016115e5565b91505092915050565b61162d816115c6565b82525050565b5f81519050919050565b5f82825260208201905092915050565b5f5b8381101561166a57808201518184015260208101905061164f565b5f8484015250505050565b5f601f19601f8301169050919050565b5f61168f82611633565b611699818561163d565b93506116a981856020860161164d565b6116b281611675565b840191505092915050565b5f82825260208201905092915050565b5f6116d782611633565b6116e181856116bd565b93506116f181856020860161164d565b6116fa81611675565b840191505092915050565b5f73ffffffffffffffffffffffffffffffffffffffff82169050919050565b5f61172e82611705565b9050919050565b61173e81611724565b82525050565b5f608083015f8301518482035f86015261175e82826116cd565b9150506020830151848203602086015261177882826116cd565b9150506040830151848203604086015261179282826116cd565b91505060608301516117a76060860182611735565b508091505092915050565b5f604083015f8301518482035f8601526117cc82826116cd565b915050602083015184820360208601526117e682826116cd565b9150508091505092915050565b5f60a0820190506118065f830188611624565b81810360208301526118188187611685565b9050818103604083015261182c8186611685565b905081810360608301526118408185611744565b9050818103608083015261185481846117b2565b90509695505050505050565b5f81519050919050565b5f82825260208201905092915050565b5f819050602082019050919050565b5f61189483836116cd565b905092915050565b5f602082019050919050565b5f6118b282611860565b6118bc818561186a565b9350836020820285016118ce8561187a565b805f5b8581101561190957848403895281516118ea8582611889565b94506118f58361189c565b925060208a019950506001810190506118d1565b50829750879550505050505092915050565b611924816115c6565b82525050565b5f608083015f8301518482035f86015261194482826116cd565b9150506020830151848203602086015261195e82826116cd565b9150506040830151848203604086015261197882826116cd565b915050606083015161198d6060860182611735565b508091505092915050565b5f604083015f8301518482035f8601526119b282826116cd565b915050602083015184820360208601526119cc82826116cd565b9150508091505092915050565b5f60e083015f8301518482035f8601526119f382826118a8565b9150506020830151611a08602086018261191b565b5060408301518482036040860152611a2082826118a8565b91505060608301518482036060860152611a3a82826116cd565b91505060808301518482036080860152611a5482826116cd565b91505060a083015184820360a0860152611a6e828261192a565b91505060c083015184820360c0860152611a888282611998565b9150508091505092915050565b5f6020820190508181035f830152611aad81846119d9565b905092915050565b7f4e487b71000000000000000000000000000000000000000000000000000000005f52602260045260245ffd5b5f6002820490506001821680611af957607f821691505b602082108103611b0c57611b0b611ab5565b5b50919050565b7f4e487b71000000000000000000000000000000000000000000000000000000005f52604160045260245ffd5b5f819050815f5260205f209050919050565b5f6020601f8301049050919050565b5f82821b905092915050565b5f60088302611b9b7fffffffffffffffffffffffffffffffffffffffffffffffffffffffffffffffff82611b60565b611ba58683611b60565b95508019841693508086168417925050509392505050565b5f819050919050565b5f611be0611bdb611bd6846115c6565b611bbd565b6115c6565b9050919050565b5f819050919050565b611bf983611bc6565b611c0d611c0582611be7565b848454611b6c565b825550505050565b5f90565b611c21611c15565b611c2c818484611bf0565b505050565b5b81811015611c4f57611c445f82611c19565b600181019050611c32565b5050565b601f821115611c9457611c6581611b3f565b611c6e84611b51565b81016020851015611c7d578190505b611c91611c8985611b51565b830182611c31565b50505b505050565b5f82821c905092915050565b5f611cb45f1984600802611c99565b1980831691505092915050565b5f611ccc8383611ca5565b9150826002028217905092915050565b611ce582611633565b67ffffffffffffffff811115611cfe57611cfd611b12565b5b611d088254611ae2565b611d13828285611c53565b5f60209050601f831160018114611d44575f8415611d32578287015190505b611d3c8582611cc1565b865550611da3565b601f198416611d5286611b3f565b5f5b82811015611d7957848901518255600182019150602085019450602081019050611d54565b86831015611d965784890151611d92601f891682611ca5565b8355505b6001600288020188555050505b505050505050565b7f4e487b71000000000000000000000000000000000000000000000000000000005f52601160045260245ffd5b5f611de2826115c6565b91507fffffffffffffffffffffffffffffffffffffffffffffffffffffffffffffffff8203611e1457611e13611dab565b5b600182019050919050565b7f4964206e616f2076616c69646f000000000000000000000000000000000000005f82015250565b5f611e53600d8361163d565b9150611e5e82611e1f565b602082019050919050565b5f6020820190508181035f830152611e8081611e47565b905091905056fe68747470733a2f2f7777772e77332e6f72672f323031382f63726564656e7469616c732f7631a2646970667358221220070c3c3eae1a763587ec04b670f7b036cd0932c50d04400a5a5c794ff197844f64736f6c63430008150033",
  "immutableReferences": {},
  "source": "// SPDX-License-Identifier: MIT\npragma solidity >=0.4.22 <0.9.0;\n\ncontract Cert {\n  \nstruct cert {\n        string[] context;\n        uint256 id;\n        string[] certType;\n        string issuer;\n        string issuernceDate;\n        cretencials credentialSubject;\n        display displayInfo;\n    }\n    struct cretencials {\n        string id;\n        string mane;\n        string email;\n        address publicKey;\n    }\n\n    struct display {\n        string contentType;\n        string content;\n    }\n  \n  mapping (uint256 => cert) public certs;\n\n  uint certCount;\n\n  constructor () {\n    certCount = 0;\n  }\n\n  function addCert() external returns (cert memory) {\n    \n    cert storage newCert = certs[certCount];\n\n    newCert.id = certCount;\n    newCert.context.push(\"https://www.w3.org/2018/credentials/v1\");\n    newCert.certType.push(\"teste\");\n    newCert.issuer = \"Issuer Teste\";\n    newCert.issuernceDate = \"2023-10-01\";\n    newCert.credentialSubject.id = \"subject1\";\n    newCert.credentialSubject.mane = \"Subject Name\";\n    newCert.credentialSubject.email = \"test@test\";\n    newCert.credentialSubject.publicKey = address(msg.sender);\n    newCert.displayInfo.contentType = \"application/json\";\n    newCert.displayInfo.content = \"{msg: teste}\";\n\n    certCount++;\n    return newCert;\n  }\n  function getCert(uint id) view external returns(cert memory) {\n    require(id <= certCount, \"Id nao valido\");\n    return certs[id];\n  }\n}\n\n",
  "sourcePath": "/home/alnnu/Projects/EduLedger/blockchain/contracts/Cert.sol",
  "compiler": {
    "name": "solc",
    "version": "0.8.21+commit.d9974bed.Emscripten.clang"
  },
  "schemaVersion": "3.4.16",
  "updatedAt": "2025-07-28T23:13:28.706Z",
  "devdoc": {
    "kind": "dev",
    "methods": {},
    "version": 1
  },
  "userdoc": {
    "kind": "user",
    "methods": {},
    "version": 1
  }
}