{
  "contractName": "Cert",
  "abi": [
    {
      "inputs": [
        {
          "internalType": "address",
          "name": "nftAddress",
          "type": "address"
        }
      ],
      "stateMutability": "nonpayable",
      "type": "constructor"
    },
    {
      "inputs": [
        {
          "internalType": "uint256",
          "name": "",
          "type": "uint256"
        }
      ],
      "name": "certs",
      "outputs": [
        {
          "internalType": "uint256",
          "name": "id",
          "type": "uint256"
        },
        {
          "internalType": "string",
          "name": "issuer",
          "type": "string"
        },
        {
          "internalType": "string",
          "name": "issuernceDate",
          "type": "string"
        },
        {
          "components": [
            {
              "internalType": "string",
              "name": "id",
              "type": "string"
            },
            {
              "internalType": "string",
              "name": "mane",
              "type": "string"
            },
            {
              "internalType": "string",
              "name": "email",
              "type": "string"
            },
            {
              "internalType": "address",
              "name": "publicKey",
              "type": "address"
            }
          ],
          "internalType": "struct Cert.cretencials",
          "name": "credentialSubject",
          "type": "tuple"
        },
        {
          "components": [
            {
              "internalType": "string",
              "name": "contentType",
              "type": "string"
            },
            {
              "internalType": "string",
              "name": "content",
              "type": "string"
            }
          ],
          "internalType": "struct Cert.display",
          "name": "displayInfo",
          "type": "tuple"
        }
      ],
      "stateMutability": "view",
      "type": "function",
      "constant": true
    },
    {
      "inputs": [],
      "name": "nftContract",
      "outputs": [
        {
          "internalType": "contract Nft",
          "name": "",
          "type": "address"
        }
      ],
      "stateMutability": "view",
      "type": "function",
      "constant": true
    },
    {
      "inputs": [],
      "name": "addCert",
      "outputs": [
        {
          "components": [
            {
              "internalType": "string[]",
              "name": "context",
              "type": "string[]"
            },
            {
              "internalType": "uint256",
              "name": "id",
              "type": "uint256"
            },
            {
              "internalType": "string[]",
              "name": "certType",
              "type": "string[]"
            },
            {
              "internalType": "string",
              "name": "issuer",
              "type": "string"
            },
            {
              "internalType": "string",
              "name": "issuernceDate",
              "type": "string"
            },
            {
              "components": [
                {
                  "internalType": "string",
                  "name": "id",
                  "type": "string"
                },
                {
                  "internalType": "string",
                  "name": "mane",
                  "type": "string"
                },
                {
                  "internalType": "string",
                  "name": "email",
                  "type": "string"
                },
                {
                  "internalType": "address",
                  "name": "publicKey",
                  "type": "address"
                }
              ],
              "internalType": "struct Cert.cretencials",
              "name": "credentialSubject",
              "type": "tuple"
            },
            {
              "components": [
                {
                  "internalType": "string",
                  "name": "contentType",
                  "type": "string"
                },
                {
                  "internalType": "string",
                  "name": "content",
                  "type": "string"
                }
              ],
              "internalType": "struct Cert.display",
              "name": "displayInfo",
              "type": "tuple"
            }
          ],
          "internalType": "struct Cert.cert",
          "name": "",
          "type": "tuple"
        }
      ],
      "stateMutability": "payable",
      "type": "function",
      "payable": true
    },
    {
      "inputs": [
        {
          "internalType": "uint256",
          "name": "id",
          "type": "uint256"
        }
      ],
      "name": "getCert",
      "outputs": [
        {
          "components": [
            {
              "internalType": "string[]",
              "name": "context",
              "type": "string[]"
            },
            {
              "internalType": "uint256",
              "name": "id",
              "type": "uint256"
            },
            {
              "internalType": "string[]",
              "name": "certType",
              "type": "string[]"
            },
            {
              "internalType": "string",
              "name": "issuer",
              "type": "string"
            },
            {
              "internalType": "string",
              "name": "issuernceDate",
              "type": "string"
            },
            {
              "components": [
                {
                  "internalType": "string",
                  "name": "id",
                  "type": "string"
                },
                {
                  "internalType": "string",
                  "name": "mane",
                  "type": "string"
                },
                {
                  "internalType": "string",
                  "name": "email",
                  "type": "string"
                },
                {
                  "internalType": "address",
                  "name": "publicKey",
                  "type": "address"
                }
              ],
              "internalType": "struct Cert.cretencials",
              "name": "credentialSubject",
              "type": "tuple"
            },
            {
              "components": [
                {
                  "internalType": "string",
                  "name": "contentType",
                  "type": "string"
                },
                {
                  "internalType": "string",
                  "name": "content",
                  "type": "string"
                }
              ],
              "internalType": "struct Cert.display",
              "name": "displayInfo",
              "type": "tuple"
            }
          ],
          "internalType": "struct Cert.cert",
          "name": "",
          "type": "tuple"
        }
      ],
      "stateMutability": "view",
      "type": "function",
      "constant": true
    }
  ],
  "bytecode": "0x608060405234801562000010575f80fd5b506040516200219d3803806200219d8339818101604052810190620000369190620000e9565b5f6001819055508060025f6101000a81548173ffffffffffffffffffffffffffffffffffffffff021916908373ffffffffffffffffffffffffffffffffffffffff1602179055505062000119565b5f80fd5b5f73ffffffffffffffffffffffffffffffffffffffff82169050919050565b5f620000b38262000088565b9050919050565b620000c581620000a7565b8114620000d0575f80fd5b50565b5f81519050620000e381620000ba565b92915050565b5f6020828403121562000101576200010062000084565b5b5f6200011084828501620000d3565b91505092915050565b61207680620001275f395ff3fe60806040526004361061003e575f3560e01c8063646750d614610042578063735e83a614610082578063b449e716146100a0578063d56d229d146100dc575b5f80fd5b34801561004d575f80fd5b50610068600480360381019061006391906116eb565b610106565b6040516100799594939291906118e5565b60405180910390f35b61008a61057b565b6040516100979190611b87565b60405180910390f35b3480156100ab575f80fd5b506100c660048036038101906100c191906116eb565b610f66565b6040516100d39190611b87565b60405180910390f35b3480156100e7575f80fd5b506100f06115f0565b6040516100fd9190611c02565b60405180910390f35b5f602052805f5260405f205f9150905080600101549080600301805461012b90611c48565b80601f016020809104026020016040519081016040528092919081815260200182805461015790611c48565b80156101a25780601f10610179576101008083540402835291602001916101a2565b820191905f5260205f20905b81548152906001019060200180831161018557829003601f168201915b5050505050908060040180546101b790611c48565b80601f01602080910402602001604051908101604052809291908181526020018280546101e390611c48565b801561022e5780601f106102055761010080835404028352916020019161022e565b820191905f5260205f20905b81548152906001019060200180831161021157829003601f168201915b505050505090806005016040518060800160405290815f8201805461025290611c48565b80601f016020809104026020016040519081016040528092919081815260200182805461027e90611c48565b80156102c95780601f106102a0576101008083540402835291602001916102c9565b820191905f5260205f20905b8154815290600101906020018083116102ac57829003601f168201915b505050505081526020016001820180546102e290611c48565b80601f016020809104026020016040519081016040528092919081815260200182805461030e90611c48565b80156103595780601f1061033057610100808354040283529160200191610359565b820191905f5260205f20905b81548152906001019060200180831161033c57829003601f168201915b5050505050815260200160028201805461037290611c48565b80601f016020809104026020016040519081016040528092919081815260200182805461039e90611c48565b80156103e95780601f106103c0576101008083540402835291602001916103e9565b820191905f5260205f20905b8154815290600101906020018083116103cc57829003601f168201915b50505050508152602001600382015f9054906101000a900473ffffffffffffffffffffffffffffffffffffffff1673ffffffffffffffffffffffffffffffffffffffff1673ffffffffffffffffffffffffffffffffffffffff168152505090806009016040518060400160405290815f8201805461046690611c48565b80601f016020809104026020016040519081016040528092919081815260200182805461049290611c48565b80156104dd5780601f106104b4576101008083540402835291602001916104dd565b820191905f5260205f20905b8154815290600101906020018083116104c057829003601f168201915b505050505081526020016001820180546104f690611c48565b80601f016020809104026020016040519081016040528092919081815260200182805461052290611c48565b801561056d5780601f106105445761010080835404028352916020019161056d565b820191905f5260205f20905b81548152906001019060200180831161055057829003601f168201915b505050505081525050905085565b610583611615565b5f805f60015481526020019081526020015f2090506001548160010181905550805f018060018154018082558091505060019003905f5260205f20015f60405180606001604052806026815260200161201b60269139909190915090816105ea9190611e39565b50806002018060018154018082558091505060019003905f5260205f20015f6040518060400160405280600581526020017f7465737465000000000000000000000000000000000000000000000000000000815250909190915090816106509190611e39565b506040518060400160405280600c81526020017f49737375657220546573746500000000000000000000000000000000000000008152508160030190816106979190611e39565b506040518060400160405280600a81526020017f323032332d31302d3031000000000000000000000000000000000000000000008152508160040190816106de9190611e39565b506040518060400160405280600881526020017f7375626a65637431000000000000000000000000000000000000000000000000815250816005015f0190816107279190611e39565b506040518060400160405280600c81526020017f5375626a656374204e616d6500000000000000000000000000000000000000008152508160050160010190816107719190611e39565b506040518060400160405280600981526020017f74657374407465737400000000000000000000000000000000000000000000008152508160050160020190816107bb9190611e39565b5033816005016003015f6101000a81548173ffffffffffffffffffffffffffffffffffffffff021916908373ffffffffffffffffffffffffffffffffffffffff1602179055506040518060400160405280601081526020017f6170706c69636174696f6e2f6a736f6e00000000000000000000000000000000815250816009015f0190816108499190611e39565b506040518060400160405280600c81526020017f7b6d73673a2074657374657d00000000000000000000000000000000000000008152508160090160010190816108939190611e39565b5060025f9054906101000a900473ffffffffffffffffffffffffffffffffffffffff1673ffffffffffffffffffffffffffffffffffffffff1663125acba53383600101546040518363ffffffff1660e01b81526004016108f4929190611f17565b5f604051808303815f87803b15801561090b575f80fd5b505af115801561091d573d5f803e3d5ffd5b5050505060015f81548092919061093390611f6b565b9190505550806040518060e00160405290815f8201805480602002602001604051908101604052809291908181526020015f905b82821015610a0f578382905f5260205f2001805461098490611c48565b80601f01602080910402602001604051908101604052809291908181526020018280546109b090611c48565b80156109fb5780601f106109d2576101008083540402835291602001916109fb565b820191905f5260205f20905b8154815290600101906020018083116109de57829003601f168201915b505050505081526020019060010190610967565b5050505081526020016001820154815260200160028201805480602002602001604051908101604052809291908181526020015f905b82821015610aed578382905f5260205f20018054610a6290611c48565b80601f0160208091040260200160405190810160405280929190818152602001828054610a8e90611c48565b8015610ad95780601f10610ab057610100808354040283529160200191610ad9565b820191905f5260205f20905b815481529060010190602001808311610abc57829003601f168201915b505050505081526020019060010190610a45565b505050508152602001600382018054610b0590611c48565b80601f0160208091040260200160405190810160405280929190818152602001828054610b3190611c48565b8015610b7c5780601f10610b5357610100808354040283529160200191610b7c565b820191905f5260205f20905b815481529060010190602001808311610b5f57829003601f168201915b50505050508152602001600482018054610b9590611c48565b80601f0160208091040260200160405190810160405280929190818152602001828054610bc190611c48565b8015610c0c5780601f10610be357610100808354040283529160200191610c0c565b820191905f5260205f20905b815481529060010190602001808311610bef57829003601f168201915b50505050508152602001600582016040518060800160405290815f82018054610c3490611c48565b80601f0160208091040260200160405190810160405280929190818152602001828054610c6090611c48565b8015610cab5780601f10610c8257610100808354040283529160200191610cab565b820191905f5260205f20905b815481529060010190602001808311610c8e57829003601f168201915b50505050508152602001600182018054610cc490611c48565b80601f0160208091040260200160405190810160405280929190818152602001828054610cf090611c48565b8015610d3b5780601f10610d1257610100808354040283529160200191610d3b565b820191905f5260205f20905b815481529060010190602001808311610d1e57829003601f168201915b50505050508152602001600282018054610d5490611c48565b80601f0160208091040260200160405190810160405280929190818152602001828054610d8090611c48565b8015610dcb5780601f10610da257610100808354040283529160200191610dcb565b820191905f5260205f20905b815481529060010190602001808311610dae57829003601f168201915b50505050508152602001600382015f9054906101000a900473ffffffffffffffffffffffffffffffffffffffff1673ffffffffffffffffffffffffffffffffffffffff1673ffffffffffffffffffffffffffffffffffffffff16815250508152602001600982016040518060400160405290815f82018054610e4c90611c48565b80601f0160208091040260200160405190810160405280929190818152602001828054610e7890611c48565b8015610ec35780601f10610e9a57610100808354040283529160200191610ec3565b820191905f5260205f20905b815481529060010190602001808311610ea657829003601f168201915b50505050508152602001600182018054610edc90611c48565b80601f0160208091040260200160405190810160405280929190818152602001828054610f0890611c48565b8015610f535780601f10610f2a57610100808354040283529160200191610f53565b820191905f5260205f20905b815481529060010190602001808311610f3657829003601f168201915b5050505050815250508152505091505090565b610f6e611615565b6001548210610fb2576040517f08c379a0000000000000000000000000000000000000000000000000000000008152600401610fa990611ffc565b60405180910390fd5b5f808381526020019081526020015f206040518060e00160405290815f8201805480602002602001604051908101604052809291908181526020015f905b82821015611098578382905f5260205f2001805461100d90611c48565b80601f016020809104026020016040519081016040528092919081815260200182805461103990611c48565b80156110845780601f1061105b57610100808354040283529160200191611084565b820191905f5260205f20905b81548152906001019060200180831161106757829003601f168201915b505050505081526020019060010190610ff0565b5050505081526020016001820154815260200160028201805480602002602001604051908101604052809291908181526020015f905b82821015611176578382905f5260205f200180546110eb90611c48565b80601f016020809104026020016040519081016040528092919081815260200182805461111790611c48565b80156111625780601f1061113957610100808354040283529160200191611162565b820191905f5260205f20905b81548152906001019060200180831161114557829003601f168201915b5050505050815260200190600101906110ce565b50505050815260200160038201805461118e90611c48565b80601f01602080910402602001604051908101604052809291908181526020018280546111ba90611c48565b80156112055780601f106111dc57610100808354040283529160200191611205565b820191905f5260205f20905b8154815290600101906020018083116111e857829003601f168201915b5050505050815260200160048201805461121e90611c48565b80601f016020809104026020016040519081016040528092919081815260200182805461124a90611c48565b80156112955780601f1061126c57610100808354040283529160200191611295565b820191905f5260205f20905b81548152906001019060200180831161127857829003601f168201915b50505050508152602001600582016040518060800160405290815f820180546112bd90611c48565b80601f01602080910402602001604051908101604052809291908181526020018280546112e990611c48565b80156113345780601f1061130b57610100808354040283529160200191611334565b820191905f5260205f20905b81548152906001019060200180831161131757829003601f168201915b5050505050815260200160018201805461134d90611c48565b80601f016020809104026020016040519081016040528092919081815260200182805461137990611c48565b80156113c45780601f1061139b576101008083540402835291602001916113c4565b820191905f5260205f20905b8154815290600101906020018083116113a757829003601f168201915b505050505081526020016002820180546113dd90611c48565b80601f016020809104026020016040519081016040528092919081815260200182805461140990611c48565b80156114545780601f1061142b57610100808354040283529160200191611454565b820191905f5260205f20905b81548152906001019060200180831161143757829003601f168201915b50505050508152602001600382015f9054906101000a900473ffffffffffffffffffffffffffffffffffffffff1673ffffffffffffffffffffffffffffffffffffffff1673ffffffffffffffffffffffffffffffffffffffff16815250508152602001600982016040518060400160405290815f820180546114d590611c48565b80601f016020809104026020016040519081016040528092919081815260200182805461150190611c48565b801561154c5780601f106115235761010080835404028352916020019161154c565b820191905f5260205f20905b81548152906001019060200180831161152f57829003601f168201915b5050505050815260200160018201805461156590611c48565b80601f016020809104026020016040519081016040528092919081815260200182805461159190611c48565b80156115dc5780601f106115b3576101008083540402835291602001916115dc565b820191905f5260205f20905b8154815290600101906020018083116115bf57829003601f168201915b505050505081525050815250509050919050565b60025f9054906101000a900473ffffffffffffffffffffffffffffffffffffffff1681565b6040518060e00160405280606081526020015f815260200160608152602001606081526020016060815260200161164a61165d565b815260200161165761169a565b81525090565b60405180608001604052806060815260200160608152602001606081526020015f73ffffffffffffffffffffffffffffffffffffffff1681525090565b604051806040016040528060608152602001606081525090565b5f80fd5b5f819050919050565b6116ca816116b8565b81146116d4575f80fd5b50565b5f813590506116e5816116c1565b92915050565b5f60208284031215611700576116ff6116b4565b5b5f61170d848285016116d7565b91505092915050565b61171f816116b8565b82525050565b5f81519050919050565b5f82825260208201905092915050565b5f5b8381101561175c578082015181840152602081019050611741565b5f8484015250505050565b5f601f19601f8301169050919050565b5f61178182611725565b61178b818561172f565b935061179b81856020860161173f565b6117a481611767565b840191505092915050565b5f82825260208201905092915050565b5f6117c982611725565b6117d381856117af565b93506117e381856020860161173f565b6117ec81611767565b840191505092915050565b5f73ffffffffffffffffffffffffffffffffffffffff82169050919050565b5f611820826117f7565b9050919050565b61183081611816565b82525050565b5f608083015f8301518482035f86015261185082826117bf565b9150506020830151848203602086015261186a82826117bf565b9150506040830151848203604086015261188482826117bf565b91505060608301516118996060860182611827565b508091505092915050565b5f604083015f8301518482035f8601526118be82826117bf565b915050602083015184820360208601526118d882826117bf565b9150508091505092915050565b5f60a0820190506118f85f830188611716565b818103602083015261190a8187611777565b9050818103604083015261191e8186611777565b905081810360608301526119328185611836565b9050818103608083015261194681846118a4565b90509695505050505050565b5f81519050919050565b5f82825260208201905092915050565b5f819050602082019050919050565b5f61198683836117bf565b905092915050565b5f602082019050919050565b5f6119a482611952565b6119ae818561195c565b9350836020820285016119c08561196c565b805f5b858110156119fb57848403895281516119dc858261197b565b94506119e78361198e565b925060208a019950506001810190506119c3565b50829750879550505050505092915050565b611a16816116b8565b82525050565b5f608083015f8301518482035f860152611a3682826117bf565b91505060208301518482036020860152611a5082826117bf565b91505060408301518482036040860152611a6a82826117bf565b9150506060830151611a7f6060860182611827565b508091505092915050565b5f604083015f8301518482035f860152611aa482826117bf565b91505060208301518482036020860152611abe82826117bf565b9150508091505092915050565b5f60e083015f8301518482035f860152611ae5828261199a565b9150506020830151611afa6020860182611a0d565b5060408301518482036040860152611b12828261199a565b91505060608301518482036060860152611b2c82826117bf565b91505060808301518482036080860152611b4682826117bf565b91505060a083015184820360a0860152611b608282611a1c565b91505060c083015184820360c0860152611b7a8282611a8a565b9150508091505092915050565b5f6020820190508181035f830152611b9f8184611acb565b905092915050565b5f819050919050565b5f611bca611bc5611bc0846117f7565b611ba7565b6117f7565b9050919050565b5f611bdb82611bb0565b9050919050565b5f611bec82611bd1565b9050919050565b611bfc81611be2565b82525050565b5f602082019050611c155f830184611bf3565b92915050565b7f4e487b71000000000000000000000000000000000000000000000000000000005f52602260045260245ffd5b5f6002820490506001821680611c5f57607f821691505b602082108103611c7257611c71611c1b565b5b50919050565b7f4e487b71000000000000000000000000000000000000000000000000000000005f52604160045260245ffd5b5f819050815f5260205f209050919050565b5f6020601f8301049050919050565b5f82821b905092915050565b5f60088302611d017fffffffffffffffffffffffffffffffffffffffffffffffffffffffffffffffff82611cc6565b611d0b8683611cc6565b95508019841693508086168417925050509392505050565b5f611d3d611d38611d33846116b8565b611ba7565b6116b8565b9050919050565b5f819050919050565b611d5683611d23565b611d6a611d6282611d44565b848454611cd2565b825550505050565b5f90565b611d7e611d72565b611d89818484611d4d565b505050565b5b81811015611dac57611da15f82611d76565b600181019050611d8f565b5050565b601f821115611df157611dc281611ca5565b611dcb84611cb7565b81016020851015611dda578190505b611dee611de685611cb7565b830182611d8e565b50505b505050565b5f82821c905092915050565b5f611e115f1984600802611df6565b1980831691505092915050565b5f611e298383611e02565b9150826002028217905092915050565b611e4282611725565b67ffffffffffffffff811115611e5b57611e5a611c78565b5b611e658254611c48565b611e70828285611db0565b5f60209050601f831160018114611ea1575f8415611e8f578287015190505b611e998582611e1e565b865550611f00565b601f198416611eaf86611ca5565b5f5b82811015611ed657848901518255600182019150602085019450602081019050611eb1565b86831015611ef35784890151611eef601f891682611e02565b8355505b6001600288020188555050505b505050505050565b611f1181611816565b82525050565b5f604082019050611f2a5f830185611f08565b611f376020830184611716565b9392505050565b7f4e487b71000000000000000000000000000000000000000000000000000000005f52601160045260245ffd5b5f611f75826116b8565b91507fffffffffffffffffffffffffffffffffffffffffffffffffffffffffffffffff8203611fa757611fa6611f3e565b5b600182019050919050565b7f4964206e616f2076616c69646f000000000000000000000000000000000000005f82015250565b5f611fe6600d8361172f565b9150611ff182611fb2565b602082019050919050565b5f6020820190508181035f83015261201381611fda565b905091905056fe68747470733a2f2f7777772e77332e6f72672f323031382f63726564656e7469616c732f7631a2646970667358221220b3a15f3cb0050d836c7c19a22e5ecf1db263eb1c64edb63569722cd07288ade264736f6c63430008150033",
  "immutableReferences": {},
  "source": "// SPDX-License-Identifier: MIT\npragma solidity ^0.8.0;\n\nimport \"./Nft.sol\";\n\ncontract Cert {\n  \n    struct cert {\n        string[] context;\n        uint256 id;\n        string[] certType;\n        string issuer;\n        string issuernceDate;\n        cretencials credentialSubject;\n        display displayInfo;\n    }\n    struct cretencials {\n        string id;\n        string mane;\n        string email;\n        address publicKey;\n    }\n\n    struct display {\n        string contentType;\n        string content;\n    }\n  \n    mapping (uint256 => cert) public certs;\n\n    uint certCount;\n    Nft public nftContract;\n\n    constructor (address nftAddress) {\n        certCount = 0;\n        nftContract = Nft(nftAddress);\n    }\n\n    function addCert() payable external returns (cert memory) {\n        \n        cert storage newCert = certs[certCount];\n\n        newCert.id = certCount;\n        newCert.context.push(\"https://www.w3.org/2018/credentials/v1\");\n        newCert.certType.push(\"teste\");\n        newCert.issuer = \"Issuer Teste\";\n        newCert.issuernceDate = \"2023-10-01\";\n        newCert.credentialSubject.id = \"subject1\";\n        newCert.credentialSubject.mane = \"Subject Name\";\n        newCert.credentialSubject.email = \"test@test\";\n        newCert.credentialSubject.publicKey = address(msg.sender);\n        newCert.displayInfo.contentType = \"application/json\";\n        newCert.displayInfo.content = \"{msg: teste}\";\n\n        nftContract.mintCertificado(msg.sender, newCert.id);\n\n        certCount++;\n        return newCert;\n    }\n    function getCert(uint id) view external returns(cert memory) {\n        require(id < certCount, \"Id nao valido\");\n        return certs[id];\n    }\n}\n\n",
  "sourcePath": "/home/alnnu/Projects/EduLedger/blockchain/contracts/Cert.sol",
  "compiler": {
    "name": "solc",
    "version": "0.8.21+commit.d9974bed.Emscripten.clang"
  },
  "schemaVersion": "3.4.16",
  "updatedAt": "2025-07-30T18:28:20.973Z",
  "networkType": "ethereum",
  "devdoc": {
    "kind": "dev",
    "methods": {},
    "version": 1
  },
  "userdoc": {
    "kind": "user",
    "methods": {},
    "version": 1
  }
}